{
  "_format": "hh-sol-artifact-1",
  "contractName": "MainProject",
  "sourceName": "contracts/MainProject.sol",
  "abi": [
    {
      "inputs": [],
      "stateMutability": "nonpayable",
      "type": "constructor"
    },
    {
      "inputs": [
        {
          "internalType": "address",
          "name": "_addr",
          "type": "address"
        },
        {
          "internalType": "string",
          "name": "_name",
          "type": "string"
        },
        {
          "internalType": "string",
          "name": "_company_id",
          "type": "string"
        }
      ],
      "name": "addCompany",
      "outputs": [],
      "stateMutability": "nonpayable",
      "type": "function"
    },
    {
      "inputs": [
        {
          "internalType": "string",
          "name": "_link",
          "type": "string"
        },
        {
          "internalType": "string",
          "name": "_title",
          "type": "string"
        },
        {
          "internalType": "string",
          "name": "_description",
          "type": "string"
        },
        {
          "internalType": "string",
          "name": "_uploaded_on",
          "type": "string"
        },
        {
          "internalType": "string",
          "name": "_id",
          "type": "string"
        }
      ],
      "name": "addFile",
      "outputs": [],
      "stateMutability": "nonpayable",
      "type": "function"
    },
    {
      "inputs": [
        {
          "internalType": "string",
          "name": "_title",
          "type": "string"
        },
        {
          "internalType": "string",
          "name": "_description",
          "type": "string"
        },
        {
          "internalType": "string",
          "name": "_requirements",
          "type": "string"
        },
        {
          "internalType": "string",
          "name": "_eligibility",
          "type": "string"
        },
        {
          "internalType": "bool",
          "name": "_active",
          "type": "bool"
        }
      ],
      "name": "addJob",
      "outputs": [],
      "stateMutability": "nonpayable",
      "type": "function"
    },
    {
      "inputs": [
        {
          "internalType": "string",
          "name": "_comment",
          "type": "string"
        },
        {
          "internalType": "string",
          "name": "_file_link",
          "type": "string"
        },
        {
          "internalType": "string",
          "name": "created_on",
          "type": "string"
        }
      ],
      "name": "addReport",
      "outputs": [],
      "stateMutability": "nonpayable",
      "type": "function"
    },
    {
      "inputs": [
        {
          "internalType": "address",
          "name": "_addr",
          "type": "address"
        },
        {
          "internalType": "string",
          "name": "_name",
          "type": "string"
        },
        {
          "internalType": "string",
          "name": "_user_id",
          "type": "string"
        }
      ],
      "name": "addUser",
      "outputs": [],
      "stateMutability": "nonpayable",
      "type": "function"
    },
    {
      "inputs": [
        {
          "internalType": "uint256",
          "name": "",
          "type": "uint256"
        }
      ],
      "name": "companies",
      "outputs": [
        {
          "internalType": "address",
          "name": "addr",
          "type": "address"
        },
        {
          "internalType": "string",
          "name": "name",
          "type": "string"
        },
        {
          "internalType": "string",
          "name": "company_id",
          "type": "string"
        }
      ],
      "stateMutability": "view",
      "type": "function"
    },
    {
      "inputs": [],
      "name": "companyCount",
      "outputs": [
        {
          "internalType": "uint256",
          "name": "",
          "type": "uint256"
        }
      ],
      "stateMutability": "view",
      "type": "function"
    },
    {
      "inputs": [
        {
          "internalType": "uint256",
          "name": "_index",
          "type": "uint256"
        },
        {
          "internalType": "string",
          "name": "_description",
          "type": "string"
        },
        {
          "internalType": "string",
          "name": "_requirements",
          "type": "string"
        },
        {
          "internalType": "string",
          "name": "_eligibility",
          "type": "string"
        },
        {
          "internalType": "bool",
          "name": "_active",
          "type": "bool"
        }
      ],
      "name": "editJob",
      "outputs": [],
      "stateMutability": "nonpayable",
      "type": "function"
    },
    {
      "inputs": [
        {
          "internalType": "uint256",
          "name": "_index",
          "type": "uint256"
        },
        {
          "internalType": "string",
          "name": "_comment",
          "type": "string"
        },
        {
          "internalType": "string",
          "name": "_file_link",
          "type": "string"
        },
        {
          "internalType": "string",
          "name": "_updated_on",
          "type": "string"
        }
      ],
      "name": "editReport",
      "outputs": [],
      "stateMutability": "nonpayable",
      "type": "function"
    },
    {
      "inputs": [],
      "name": "fileCount",
      "outputs": [
        {
          "internalType": "uint256",
          "name": "",
          "type": "uint256"
        }
      ],
      "stateMutability": "view",
      "type": "function"
    },
    {
      "inputs": [
        {
          "internalType": "uint256",
          "name": "",
          "type": "uint256"
        }
      ],
      "name": "files",
      "outputs": [
        {
          "internalType": "string",
          "name": "link",
          "type": "string"
        },
        {
          "internalType": "string",
          "name": "title",
          "type": "string"
        },
        {
          "internalType": "string",
          "name": "description",
          "type": "string"
        },
        {
          "internalType": "string",
          "name": "uploaded_on",
          "type": "string"
        },
        {
          "internalType": "uint256",
          "name": "index",
          "type": "uint256"
        },
        {
          "internalType": "string",
          "name": "id",
          "type": "string"
        }
      ],
      "stateMutability": "view",
      "type": "function"
    },
    {
      "inputs": [
        {
          "internalType": "address",
          "name": "_addr",
          "type": "address"
        }
      ],
      "name": "isCompany",
      "outputs": [
        {
          "internalType": "bool",
          "name": "",
          "type": "bool"
        }
      ],
      "stateMutability": "view",
      "type": "function"
    },
    {
      "inputs": [
        {
          "internalType": "address",
          "name": "_addr",
          "type": "address"
        }
      ],
      "name": "isUser",
      "outputs": [
        {
          "internalType": "bool",
          "name": "",
          "type": "bool"
        }
      ],
      "stateMutability": "view",
      "type": "function"
    },
    {
      "inputs": [],
      "name": "jobCount",
      "outputs": [
        {
          "internalType": "uint256",
          "name": "",
          "type": "uint256"
        }
      ],
      "stateMutability": "view",
      "type": "function"
    },
    {
      "inputs": [
        {
          "internalType": "uint256",
          "name": "",
          "type": "uint256"
        }
      ],
      "name": "jobs",
      "outputs": [
        {
          "internalType": "string",
          "name": "title",
          "type": "string"
        },
        {
          "internalType": "string",
          "name": "description",
          "type": "string"
        },
        {
          "internalType": "string",
          "name": "requirements",
          "type": "string"
        },
        {
          "internalType": "string",
          "name": "eligibility",
          "type": "string"
        },
        {
          "internalType": "bool",
          "name": "active",
          "type": "bool"
        },
        {
          "internalType": "uint256",
          "name": "index",
          "type": "uint256"
        }
      ],
      "stateMutability": "view",
      "type": "function"
    },
    {
      "inputs": [],
      "name": "ownerCount",
      "outputs": [
        {
          "internalType": "uint256",
          "name": "",
          "type": "uint256"
        }
      ],
      "stateMutability": "view",
      "type": "function"
    },
    {
      "inputs": [
        {
          "internalType": "uint256",
          "name": "",
          "type": "uint256"
        }
      ],
      "name": "owners",
      "outputs": [
        {
          "internalType": "address",
          "name": "addr",
          "type": "address"
        },
        {
          "internalType": "string",
          "name": "name",
          "type": "string"
        }
      ],
      "stateMutability": "view",
      "type": "function"
    },
    {
      "inputs": [],
      "name": "reportCount",
      "outputs": [
        {
          "internalType": "uint256",
          "name": "",
          "type": "uint256"
        }
      ],
      "stateMutability": "view",
      "type": "function"
    },
    {
      "inputs": [
        {
          "internalType": "uint256",
          "name": "",
          "type": "uint256"
        }
      ],
      "name": "reports",
      "outputs": [
        {
          "internalType": "address",
          "name": "user",
          "type": "address"
        },
        {
          "internalType": "string",
          "name": "comment",
          "type": "string"
        },
        {
          "internalType": "string",
          "name": "file_link",
          "type": "string"
        },
        {
          "internalType": "string",
          "name": "created_on",
          "type": "string"
        },
        {
          "internalType": "string",
          "name": "updated_on",
          "type": "string"
        },
        {
          "internalType": "uint256",
          "name": "index",
          "type": "uint256"
        }
      ],
      "stateMutability": "view",
      "type": "function"
    },
    {
      "inputs": [],
      "name": "userCount",
      "outputs": [
        {
          "internalType": "uint256",
          "name": "",
          "type": "uint256"
        }
      ],
      "stateMutability": "view",
      "type": "function"
    },
    {
      "inputs": [
        {
          "internalType": "uint256",
          "name": "",
          "type": "uint256"
        }
      ],
      "name": "users",
      "outputs": [
        {
          "internalType": "address",
          "name": "addr",
          "type": "address"
        },
        {
          "internalType": "string",
          "name": "name",
          "type": "string"
        },
        {
          "internalType": "string",
          "name": "user_id",
          "type": "string"
        }
      ],
      "stateMutability": "view",
      "type": "function"
    }
  ],
  "bytecode": "0x60806040526000805560006002556000600455600060065560006008556000600a553480156200002e57600080fd5b506004600081548092919062000044906200022b565b9190505550600560405180604001604052803373ffffffffffffffffffffffffffffffffffffffff1681526020016040518060400160405280601281526020017f4d61696e2050726f6a6563742041646d696e0000000000000000000000000000815250815250908060018154018082558091505060019003906000526020600020906002020160009091909190915060008201518160000160006101000a81548173ffffffffffffffffffffffffffffffffffffffff021916908373ffffffffffffffffffffffffffffffffffffffff16021790555060208201518160010190805190602001906200013992919062000142565b505050620002de565b8280546200015090620002a8565b90600052602060002090601f016020900481019282620001745760008555620001c0565b82601f106200018f57805160ff1916838001178555620001c0565b82800160010185558215620001c0579182015b82811115620001bf578251825591602001919060010190620001a2565b5b509050620001cf9190620001d3565b5090565b5b80821115620001ee576000816000905550600101620001d4565b5090565b7f4e487b7100000000000000000000000000000000000000000000000000000000600052601160045260246000fd5b6000819050919050565b6000620002388262000221565b91507fffffffffffffffffffffffffffffffffffffffffffffffffffffffffffffffff8214156200026e576200026d620001f2565b5b600182019050919050565b7f4e487b7100000000000000000000000000000000000000000000000000000000600052602260045260246000fd5b60006002820490506001821680620002c157607f821691505b60208210811415620002d857620002d762000279565b5b50919050565b612b6e80620002ee6000396000f3fe608060405234801561001057600080fd5b50600436106101375760003560e01c80634c5d8a0f116100b8578063a0406ce21161007c578063a0406ce21461035a578063c942adf71461038a578063d7554a68146103bf578063eadf7c1d146103db578063f3aa6716146103f7578063f4c714b41461041357610137565b80634c5d8a0f146102ca5780636bbdb899146102e85780637abfe836146103045780638e75dd47146103205780639360c8b31461033e57610137565b8063185c6f84116100ff578063185c6f84146101fa5780632813d19d14610218578063365b98b21461024a5780634209fff11461027c57806343953519146102ac57610137565b8063025e7c271461013c57806307973ccf1461016d5780630a7fac441461018b5780630db02622146101a7578063180aedf3146101c5575b600080fd5b6101566004803603810190610151919061206e565b610448565b604051610164929190612175565b60405180910390f35b610175610524565b60405161018291906121b4565b60405180910390f35b6101a560048036038101906101a09190612304565b61052a565b005b6101af610654565b6040516101bc91906121b4565b60405180910390f35b6101df60048036038101906101da919061206e565b61065a565b6040516101f196959493929190612426565b60405180910390f35b6102026108d3565b60405161020f91906121b4565b60405180910390f35b610232600480360381019061022d919061206e565b6108d9565b604051610241939291906124a3565b60405180910390f35b610264600480360381019061025f919061206e565b610a43565b604051610273939291906124a3565b60405180910390f35b61029660048036038101906102919190612514565b610bad565b6040516102a39190612541565b60405180910390f35b6102b4610c60565b6040516102c191906121b4565b60405180910390f35b6102d2610c66565b6040516102df91906121b4565b60405180910390f35b61030260048036038101906102fd919061255c565b610c6c565b005b61031e6004803603810190610319919061262f565b610dce565b005b610328611219565b60405161033591906121b4565b60405180910390f35b610358600480360381019061035391906126fe565b61121f565b005b610374600480360381019061036f9190612514565b61133a565b6040516103819190612541565b60405180910390f35b6103a4600480360381019061039f919061206e565b6113ed565b6040516103b6969594939291906127e9565b60405180910390f35b6103d960048036038101906103d49190612866565b611679565b005b6103f560048036038101906103f09190612866565b611775565b005b610411600480360381019061040c91906128f1565b611871565b005b61042d6004803603810190610428919061206e565b611c57565b60405161043f969594939291906129ac565b60405180910390f35b6005818154811061045857600080fd5b90600052602060002090600202016000915090508060000160009054906101000a900473ffffffffffffffffffffffffffffffffffffffff16908060010180546104a190612a5f565b80601f01602080910402602001604051908101604052809291908181526020018280546104cd90612a5f565b801561051a5780601f106104ef5761010080835404028352916020019161051a565b820191906000526020600020905b8154815290600101906020018083116104fd57829003601f168201915b5050505050905082565b60065481565b610532611f4b565b858160000181905250848160200181905250838160400181905250828160600181905250600a54816080018181525050818160a00181905250600b81908060018154018082558091505060019003906000526020600020906006020160009091909190915060008201518160000190805190602001906105b3929190611f81565b5060208201518160010190805190602001906105d0929190611f81565b5060408201518160020190805190602001906105ed929190611f81565b50606082015181600301908051906020019061060a929190611f81565b506080820151816004015560a0820151816005019080519060200190610631929190611f81565b505050600a600081548092919061064790612ac0565b9190505550505050505050565b60045481565b6003818154811061066a57600080fd5b906000526020600020906006020160009150905080600001805461068d90612a5f565b80601f01602080910402602001604051908101604052809291908181526020018280546106b990612a5f565b80156107065780601f106106db57610100808354040283529160200191610706565b820191906000526020600020905b8154815290600101906020018083116106e957829003601f168201915b50505050509080600101805461071b90612a5f565b80601f016020809104026020016040519081016040528092919081815260200182805461074790612a5f565b80156107945780601f1061076957610100808354040283529160200191610794565b820191906000526020600020905b81548152906001019060200180831161077757829003601f168201915b5050505050908060020180546107a990612a5f565b80601f01602080910402602001604051908101604052809291908181526020018280546107d590612a5f565b80156108225780601f106107f757610100808354040283529160200191610822565b820191906000526020600020905b81548152906001019060200180831161080557829003601f168201915b50505050509080600301805461083790612a5f565b80601f016020809104026020016040519081016040528092919081815260200182805461086390612a5f565b80156108b05780601f10610885576101008083540402835291602001916108b0565b820191906000526020600020905b81548152906001019060200180831161089357829003601f168201915b5050505050908060040160009054906101000a900460ff16908060050154905086565b60005481565b600981815481106108e957600080fd5b90600052602060002090600302016000915090508060000160009054906101000a900473ffffffffffffffffffffffffffffffffffffffff169080600101805461093290612a5f565b80601f016020809104026020016040519081016040528092919081815260200182805461095e90612a5f565b80156109ab5780601f10610980576101008083540402835291602001916109ab565b820191906000526020600020905b81548152906001019060200180831161098e57829003601f168201915b5050505050908060020180546109c090612a5f565b80601f01602080910402602001604051908101604052809291908181526020018280546109ec90612a5f565b8015610a395780601f10610a0e57610100808354040283529160200191610a39565b820191906000526020600020905b815481529060010190602001808311610a1c57829003601f168201915b5050505050905083565b60078181548110610a5357600080fd5b90600052602060002090600302016000915090508060000160009054906101000a900473ffffffffffffffffffffffffffffffffffffffff1690806001018054610a9c90612a5f565b80601f0160208091040260200160405190810160405280929190818152602001828054610ac890612a5f565b8015610b155780601f10610aea57610100808354040283529160200191610b15565b820191906000526020600020905b815481529060010190602001808311610af857829003601f168201915b505050505090806002018054610b2a90612a5f565b80601f0160208091040260200160405190810160405280929190818152602001828054610b5690612a5f565b8015610ba35780601f10610b7857610100808354040283529160200191610ba3565b820191906000526020600020905b815481529060010190602001808311610b8657829003601f168201915b5050505050905083565b600080600090505b600654811015610c555760078181548110610bd357610bd2612b09565b5b906000526020600020906003020160000160009054906101000a900473ffffffffffffffffffffffffffffffffffffffff1673ffffffffffffffffffffffffffffffffffffffff168373ffffffffffffffffffffffffffffffffffffffff161415610c42576001915050610c5b565b8080610c4d90612ac0565b915050610bb5565b50600090505b919050565b600a5481565b60025481565b60016040518060c001604052803373ffffffffffffffffffffffffffffffffffffffff168152602001858152602001848152602001838152602001604051806020016040528060008152508152602001600054815250908060018154018082558091505060019003906000526020600020906006020160009091909190915060008201518160000160006101000a81548173ffffffffffffffffffffffffffffffffffffffff021916908373ffffffffffffffffffffffffffffffffffffffff1602179055506020820151816001019080519060200190610d4e929190611f81565b506040820151816002019080519060200190610d6b929190611f81565b506060820151816003019080519060200190610d88929190611f81565b506080820151816004019080519060200190610da5929190611f81565b5060a082015181600501555050600080815480929190610dc490612ac0565b9190505550505050565b600060038681548110610de457610de3612b09565b5b90600052602060002090600602016040518060c0016040529081600082018054610e0d90612a5f565b80601f0160208091040260200160405190810160405280929190818152602001828054610e3990612a5f565b8015610e865780601f10610e5b57610100808354040283529160200191610e86565b820191906000526020600020905b815481529060010190602001808311610e6957829003601f168201915b50505050508152602001600182018054610e9f90612a5f565b80601f0160208091040260200160405190810160405280929190818152602001828054610ecb90612a5f565b8015610f185780601f10610eed57610100808354040283529160200191610f18565b820191906000526020600020905b815481529060010190602001808311610efb57829003601f168201915b50505050508152602001600282018054610f3190612a5f565b80601f0160208091040260200160405190810160405280929190818152602001828054610f5d90612a5f565b8015610faa5780601f10610f7f57610100808354040283529160200191610faa565b820191906000526020600020905b815481529060010190602001808311610f8d57829003601f168201915b50505050508152602001600382018054610fc390612a5f565b80601f0160208091040260200160405190810160405280929190818152602001828054610fef90612a5f565b801561103c5780601f106110115761010080835404028352916020019161103c565b820191906000526020600020905b81548152906001019060200180831161101f57829003601f168201915b505050505081526020016004820160009054906101000a900460ff16151515158152602001600582015481525050905084816020018190525083816040018190525082816060018190525081816080019015159081151581525050600386815481106110ab576110aa612b09565b5b906000526020600020906006020160000180546110c790612a5f565b80601f01602080910402602001604051908101604052809291908181526020018280546110f390612a5f565b80156111405780601f1061111557610100808354040283529160200191611140565b820191906000526020600020905b81548152906001019060200180831161112357829003601f168201915b50505050508160000181905250806003878154811061116257611161612b09565b5b9060005260206000209060060201600082015181600001908051906020019061118c929190611f81565b5060208201518160010190805190602001906111a9929190611f81565b5060408201518160020190805190602001906111c6929190611f81565b5060608201518160030190805190602001906111e3929190611f81565b5060808201518160040160006101000a81548160ff02191690831515021790555060a08201518160050155905050505050505050565b60085481565b60036040518060c00160405280878152602001868152602001858152602001848152602001831515815260200160025481525090806001815401808255809150506001900390600052602060002090600602016000909190919091506000820151816000019080519060200190611297929190611f81565b5060208201518160010190805190602001906112b4929190611f81565b5060408201518160020190805190602001906112d1929190611f81565b5060608201518160030190805190602001906112ee929190611f81565b5060808201518160040160006101000a81548160ff02191690831515021790555060a0820151816005015550506002600081548092919061132e90612ac0565b91905055505050505050565b600080600090505b6008548110156113e257600981815481106113605761135f612b09565b5b906000526020600020906003020160000160009054906101000a900473ffffffffffffffffffffffffffffffffffffffff1673ffffffffffffffffffffffffffffffffffffffff168373ffffffffffffffffffffffffffffffffffffffff1614156113cf5760019150506113e8565b80806113da90612ac0565b915050611342565b50600090505b919050565b600181815481106113fd57600080fd5b90600052602060002090600602016000915090508060000160009054906101000a900473ffffffffffffffffffffffffffffffffffffffff169080600101805461144690612a5f565b80601f016020809104026020016040519081016040528092919081815260200182805461147290612a5f565b80156114bf5780601f10611494576101008083540402835291602001916114bf565b820191906000526020600020905b8154815290600101906020018083116114a257829003601f168201915b5050505050908060020180546114d490612a5f565b80601f016020809104026020016040519081016040528092919081815260200182805461150090612a5f565b801561154d5780601f106115225761010080835404028352916020019161154d565b820191906000526020600020905b81548152906001019060200180831161153057829003601f168201915b50505050509080600301805461156290612a5f565b80601f016020809104026020016040519081016040528092919081815260200182805461158e90612a5f565b80156115db5780601f106115b0576101008083540402835291602001916115db565b820191906000526020600020905b8154815290600101906020018083116115be57829003601f168201915b5050505050908060040180546115f090612a5f565b80601f016020809104026020016040519081016040528092919081815260200182805461161c90612a5f565b80156116695780601f1061163e57610100808354040283529160200191611669565b820191906000526020600020905b81548152906001019060200180831161164c57829003601f168201915b5050505050908060050154905086565b600760405180606001604052808573ffffffffffffffffffffffffffffffffffffffff16815260200184815260200183815250908060018154018082558091505060019003906000526020600020906003020160009091909190915060008201518160000160006101000a81548173ffffffffffffffffffffffffffffffffffffffff021916908373ffffffffffffffffffffffffffffffffffffffff1602179055506020820151816001019080519060200190611738929190611f81565b506040820151816002019080519060200190611755929190611f81565b5050506006600081548092919061176b90612ac0565b9190505550505050565b600960405180606001604052808573ffffffffffffffffffffffffffffffffffffffff16815260200184815260200183815250908060018154018082558091505060019003906000526020600020906003020160009091909190915060008201518160000160006101000a81548173ffffffffffffffffffffffffffffffffffffffff021916908373ffffffffffffffffffffffffffffffffffffffff1602179055506020820151816001019080519060200190611834929190611f81565b506040820151816002019080519060200190611851929190611f81565b5050506006600081548092919061186790612ac0565b9190505550505050565b60006001858154811061188757611886612b09565b5b90600052602060002090600602016040518060c00160405290816000820160009054906101000a900473ffffffffffffffffffffffffffffffffffffffff1673ffffffffffffffffffffffffffffffffffffffff1673ffffffffffffffffffffffffffffffffffffffff16815260200160018201805461190690612a5f565b80601f016020809104026020016040519081016040528092919081815260200182805461193290612a5f565b801561197f5780601f106119545761010080835404028352916020019161197f565b820191906000526020600020905b81548152906001019060200180831161196257829003601f168201915b5050505050815260200160028201805461199890612a5f565b80601f01602080910402602001604051908101604052809291908181526020018280546119c490612a5f565b8015611a115780601f106119e657610100808354040283529160200191611a11565b820191906000526020600020905b8154815290600101906020018083116119f457829003601f168201915b50505050508152602001600382018054611a2a90612a5f565b80601f0160208091040260200160405190810160405280929190818152602001828054611a5690612a5f565b8015611aa35780601f10611a7857610100808354040283529160200191611aa3565b820191906000526020600020905b815481529060010190602001808311611a8657829003601f168201915b50505050508152602001600482018054611abc90612a5f565b80601f0160208091040260200160405190810160405280929190818152602001828054611ae890612a5f565b8015611b355780601f10611b0a57610100808354040283529160200191611b35565b820191906000526020600020905b815481529060010190602001808311611b1857829003601f168201915b5050505050815260200160058201548152505090508381602001819052508281604001819052508181608001819052508060018681548110611b7a57611b79612b09565b5b906000526020600020906006020160008201518160000160006101000a81548173ffffffffffffffffffffffffffffffffffffffff021916908373ffffffffffffffffffffffffffffffffffffffff1602179055506020820151816001019080519060200190611beb929190611f81565b506040820151816002019080519060200190611c08929190611f81565b506060820151816003019080519060200190611c25929190611f81565b506080820151816004019080519060200190611c42929190611f81565b5060a082015181600501559050505050505050565b600b8181548110611c6757600080fd5b9060005260206000209060060201600091509050806000018054611c8a90612a5f565b80601f0160208091040260200160405190810160405280929190818152602001828054611cb690612a5f565b8015611d035780601f10611cd857610100808354040283529160200191611d03565b820191906000526020600020905b815481529060010190602001808311611ce657829003601f168201915b505050505090806001018054611d1890612a5f565b80601f0160208091040260200160405190810160405280929190818152602001828054611d4490612a5f565b8015611d915780601f10611d6657610100808354040283529160200191611d91565b820191906000526020600020905b815481529060010190602001808311611d7457829003601f168201915b505050505090806002018054611da690612a5f565b80601f0160208091040260200160405190810160405280929190818152602001828054611dd290612a5f565b8015611e1f5780601f10611df457610100808354040283529160200191611e1f565b820191906000526020600020905b815481529060010190602001808311611e0257829003601f168201915b505050505090806003018054611e3490612a5f565b80601f0160208091040260200160405190810160405280929190818152602001828054611e6090612a5f565b8015611ead5780601f10611e8257610100808354040283529160200191611ead565b820191906000526020600020905b815481529060010190602001808311611e9057829003601f168201915b505050505090806004015490806005018054611ec890612a5f565b80601f0160208091040260200160405190810160405280929190818152602001828054611ef490612a5f565b8015611f415780601f10611f1657610100808354040283529160200191611f41565b820191906000526020600020905b815481529060010190602001808311611f2457829003601f168201915b5050505050905086565b6040518060c001604052806060815260200160608152602001606081526020016060815260200160008152602001606081525090565b828054611f8d90612a5f565b90600052602060002090601f016020900481019282611faf5760008555611ff6565b82601f10611fc857805160ff1916838001178555611ff6565b82800160010185558215611ff6579182015b82811115611ff5578251825591602001919060010190611fda565b5b5090506120039190612007565b5090565b5b80821115612020576000816000905550600101612008565b5090565b6000604051905090565b600080fd5b600080fd5b6000819050919050565b61204b81612038565b811461205657600080fd5b50565b60008135905061206881612042565b92915050565b6000602082840312156120845761208361202e565b5b600061209284828501612059565b91505092915050565b600073ffffffffffffffffffffffffffffffffffffffff82169050919050565b60006120c68261209b565b9050919050565b6120d6816120bb565b82525050565b600081519050919050565b600082825260208201905092915050565b60005b838110156121165780820151818401526020810190506120fb565b83811115612125576000848401525b50505050565b6000601f19601f8301169050919050565b6000612147826120dc565b61215181856120e7565b93506121618185602086016120f8565b61216a8161212b565b840191505092915050565b600060408201905061218a60008301856120cd565b818103602083015261219c818461213c565b90509392505050565b6121ae81612038565b82525050565b60006020820190506121c960008301846121a5565b92915050565b600080fd5b600080fd5b7f4e487b7100000000000000000000000000000000000000000000000000000000600052604160045260246000fd5b6122118261212b565b810181811067ffffffffffffffff821117156122305761222f6121d9565b5b80604052505050565b6000612243612024565b905061224f8282612208565b919050565b600067ffffffffffffffff82111561226f5761226e6121d9565b5b6122788261212b565b9050602081019050919050565b82818337600083830152505050565b60006122a76122a284612254565b612239565b9050828152602081018484840111156122c3576122c26121d4565b5b6122ce848285612285565b509392505050565b600082601f8301126122eb576122ea6121cf565b5b81356122fb848260208601612294565b91505092915050565b600080600080600060a086880312156123205761231f61202e565b5b600086013567ffffffffffffffff81111561233e5761233d612033565b5b61234a888289016122d6565b955050602086013567ffffffffffffffff81111561236b5761236a612033565b5b612377888289016122d6565b945050604086013567ffffffffffffffff81111561239857612397612033565b5b6123a4888289016122d6565b935050606086013567ffffffffffffffff8111156123c5576123c4612033565b5b6123d1888289016122d6565b925050608086013567ffffffffffffffff8111156123f2576123f1612033565b5b6123fe888289016122d6565b9150509295509295909350565b60008115159050919050565b6124208161240b565b82525050565b600060c0820190508181036000830152612440818961213c565b90508181036020830152612454818861213c565b90508181036040830152612468818761213c565b9050818103606083015261247c818661213c565b905061248b6080830185612417565b61249860a08301846121a5565b979650505050505050565b60006060820190506124b860008301866120cd565b81810360208301526124ca818561213c565b905081810360408301526124de818461213c565b9050949350505050565b6124f1816120bb565b81146124fc57600080fd5b50565b60008135905061250e816124e8565b92915050565b60006020828403121561252a5761252961202e565b5b6000612538848285016124ff565b91505092915050565b60006020820190506125566000830184612417565b92915050565b6000806000606084860312156125755761257461202e565b5b600084013567ffffffffffffffff81111561259357612592612033565b5b61259f868287016122d6565b935050602084013567ffffffffffffffff8111156125c0576125bf612033565b5b6125cc868287016122d6565b925050604084013567ffffffffffffffff8111156125ed576125ec612033565b5b6125f9868287016122d6565b9150509250925092565b61260c8161240b565b811461261757600080fd5b50565b60008135905061262981612603565b92915050565b600080600080600060a0868803121561264b5761264a61202e565b5b600061265988828901612059565b955050602086013567ffffffffffffffff81111561267a57612679612033565b5b612686888289016122d6565b945050604086013567ffffffffffffffff8111156126a7576126a6612033565b5b6126b3888289016122d6565b935050606086013567ffffffffffffffff8111156126d4576126d3612033565b5b6126e0888289016122d6565b92505060806126f18882890161261a565b9150509295509295909350565b600080600080600060a0868803121561271a5761271961202e565b5b600086013567ffffffffffffffff81111561273857612737612033565b5b612744888289016122d6565b955050602086013567ffffffffffffffff81111561276557612764612033565b5b612771888289016122d6565b945050604086013567ffffffffffffffff81111561279257612791612033565b5b61279e888289016122d6565b935050606086013567ffffffffffffffff8111156127bf576127be612033565b5b6127cb888289016122d6565b92505060806127dc8882890161261a565b9150509295509295909350565b600060c0820190506127fe60008301896120cd565b8181036020830152612810818861213c565b90508181036040830152612824818761213c565b90508181036060830152612838818661213c565b9050818103608083015261284c818561213c565b905061285b60a08301846121a5565b979650505050505050565b60008060006060848603121561287f5761287e61202e565b5b600061288d868287016124ff565b935050602084013567ffffffffffffffff8111156128ae576128ad612033565b5b6128ba868287016122d6565b925050604084013567ffffffffffffffff8111156128db576128da612033565b5b6128e7868287016122d6565b9150509250925092565b6000806000806080858703121561290b5761290a61202e565b5b600061291987828801612059565b945050602085013567ffffffffffffffff81111561293a57612939612033565b5b612946878288016122d6565b935050604085013567ffffffffffffffff81111561296757612966612033565b5b612973878288016122d6565b925050606085013567ffffffffffffffff81111561299457612993612033565b5b6129a0878288016122d6565b91505092959194509250565b600060c08201905081810360008301526129c6818961213c565b905081810360208301526129da818861213c565b905081810360408301526129ee818761213c565b90508181036060830152612a02818661213c565b9050612a1160808301856121a5565b81810360a0830152612a23818461213c565b9050979650505050505050565b7f4e487b7100000000000000000000000000000000000000000000000000000000600052602260045260246000fd5b60006002820490506001821680612a7757607f821691505b60208210811415612a8b57612a8a612a30565b5b50919050565b7f4e487b7100000000000000000000000000000000000000000000000000000000600052601160045260246000fd5b6000612acb82612038565b91507fffffffffffffffffffffffffffffffffffffffffffffffffffffffffffffffff821415612afe57612afd612a91565b5b600182019050919050565b7f4e487b7100000000000000000000000000000000000000000000000000000000600052603260045260246000fdfea26469706673582212205f2594a423d3a2ccb0029d0a69f2b4262676250059f80b7776966bc651aa874d64736f6c63430008090033",
  "linkReferences": {},
  "deployedLinkReferences": {}
}