{
  "_format": "hh-sol-artifact-1",
  "contractName": "MainProject",
  "sourceName": "contracts/MainProject.sol",
  "abi": [
    {
      "inputs": [],
      "stateMutability": "nonpayable",
      "type": "constructor"
    },
    {
      "inputs": [
        {
          "internalType": "address",
          "name": "_addr",
          "type": "address"
        },
        {
          "internalType": "string",
          "name": "_name",
          "type": "string"
        },
        {
          "internalType": "string",
          "name": "_company_id",
          "type": "string"
        }
      ],
      "name": "addCompany",
      "outputs": [],
      "stateMutability": "nonpayable",
      "type": "function"
    },
    {
      "inputs": [
        {
          "internalType": "string",
          "name": "_link",
          "type": "string"
        },
        {
          "internalType": "string",
          "name": "_title",
          "type": "string"
        },
        {
          "internalType": "string",
          "name": "_description",
          "type": "string"
        },
        {
          "internalType": "string",
          "name": "_uploaded_on",
          "type": "string"
        },
        {
          "internalType": "string",
          "name": "_id",
          "type": "string"
        }
      ],
      "name": "addFile",
      "outputs": [],
      "stateMutability": "nonpayable",
      "type": "function"
    },
    {
      "inputs": [
        {
          "internalType": "string",
          "name": "_company_id",
          "type": "string"
        },
        {
          "internalType": "string",
          "name": "_title",
          "type": "string"
        },
        {
          "internalType": "string",
          "name": "_description",
          "type": "string"
        },
        {
          "internalType": "string",
          "name": "_requirements",
          "type": "string"
        },
        {
          "internalType": "string",
          "name": "_eligibility",
          "type": "string"
        },
        {
          "internalType": "bool",
          "name": "_active",
          "type": "bool"
        }
      ],
      "name": "addJob",
      "outputs": [],
      "stateMutability": "nonpayable",
      "type": "function"
    },
    {
      "inputs": [
        {
          "internalType": "string",
          "name": "_comment",
          "type": "string"
        },
        {
          "internalType": "string",
          "name": "_file_link",
          "type": "string"
        },
        {
          "internalType": "string",
          "name": "created_on",
          "type": "string"
        }
      ],
      "name": "addReport",
      "outputs": [],
      "stateMutability": "nonpayable",
      "type": "function"
    },
    {
      "inputs": [
        {
          "internalType": "address",
          "name": "_addr",
          "type": "address"
        },
        {
          "internalType": "string",
          "name": "_name",
          "type": "string"
        },
        {
          "internalType": "string",
          "name": "_user_id",
          "type": "string"
        }
      ],
      "name": "addUser",
      "outputs": [],
      "stateMutability": "nonpayable",
      "type": "function"
    },
    {
      "inputs": [
        {
          "internalType": "uint256",
          "name": "",
          "type": "uint256"
        }
      ],
      "name": "companies",
      "outputs": [
        {
          "internalType": "address",
          "name": "addr",
          "type": "address"
        },
        {
          "internalType": "string",
          "name": "name",
          "type": "string"
        },
        {
          "internalType": "string",
          "name": "company_id",
          "type": "string"
        }
      ],
      "stateMutability": "view",
      "type": "function"
    },
    {
      "inputs": [],
      "name": "companyCount",
      "outputs": [
        {
          "internalType": "uint256",
          "name": "",
          "type": "uint256"
        }
      ],
      "stateMutability": "view",
      "type": "function"
    },
    {
      "inputs": [
        {
          "internalType": "uint256",
          "name": "_index",
          "type": "uint256"
        },
        {
          "internalType": "string",
          "name": "_description",
          "type": "string"
        },
        {
          "internalType": "string",
          "name": "_requirements",
          "type": "string"
        },
        {
          "internalType": "string",
          "name": "_eligibility",
          "type": "string"
        },
        {
          "internalType": "bool",
          "name": "_active",
          "type": "bool"
        }
      ],
      "name": "editJob",
      "outputs": [],
      "stateMutability": "nonpayable",
      "type": "function"
    },
    {
      "inputs": [
        {
          "internalType": "uint256",
          "name": "_index",
          "type": "uint256"
        },
        {
          "internalType": "string",
          "name": "_comment",
          "type": "string"
        },
        {
          "internalType": "string",
          "name": "_file_link",
          "type": "string"
        },
        {
          "internalType": "string",
          "name": "_updated_on",
          "type": "string"
        }
      ],
      "name": "editReport",
      "outputs": [],
      "stateMutability": "nonpayable",
      "type": "function"
    },
    {
      "inputs": [],
      "name": "fileCount",
      "outputs": [
        {
          "internalType": "uint256",
          "name": "",
          "type": "uint256"
        }
      ],
      "stateMutability": "view",
      "type": "function"
    },
    {
      "inputs": [
        {
          "internalType": "uint256",
          "name": "",
          "type": "uint256"
        }
      ],
      "name": "files",
      "outputs": [
        {
          "internalType": "string",
          "name": "link",
          "type": "string"
        },
        {
          "internalType": "string",
          "name": "title",
          "type": "string"
        },
        {
          "internalType": "string",
          "name": "description",
          "type": "string"
        },
        {
          "internalType": "string",
          "name": "uploaded_on",
          "type": "string"
        },
        {
          "internalType": "uint256",
          "name": "index",
          "type": "uint256"
        },
        {
          "internalType": "string",
          "name": "id",
          "type": "string"
        }
      ],
      "stateMutability": "view",
      "type": "function"
    },
    {
      "inputs": [
        {
          "internalType": "address",
          "name": "_addr",
          "type": "address"
        }
      ],
      "name": "isCompany",
      "outputs": [
        {
          "internalType": "bool",
          "name": "",
          "type": "bool"
        }
      ],
      "stateMutability": "view",
      "type": "function"
    },
    {
      "inputs": [
        {
          "internalType": "address",
          "name": "_addr",
          "type": "address"
        }
      ],
      "name": "isUser",
      "outputs": [
        {
          "internalType": "bool",
          "name": "",
          "type": "bool"
        }
      ],
      "stateMutability": "view",
      "type": "function"
    },
    {
      "inputs": [],
      "name": "jobCount",
      "outputs": [
        {
          "internalType": "uint256",
          "name": "",
          "type": "uint256"
        }
      ],
      "stateMutability": "view",
      "type": "function"
    },
    {
      "inputs": [
        {
          "internalType": "uint256",
          "name": "",
          "type": "uint256"
        }
      ],
      "name": "jobs",
      "outputs": [
        {
          "internalType": "string",
          "name": "company_id",
          "type": "string"
        },
        {
          "internalType": "string",
          "name": "title",
          "type": "string"
        },
        {
          "internalType": "string",
          "name": "description",
          "type": "string"
        },
        {
          "internalType": "string",
          "name": "requirements",
          "type": "string"
        },
        {
          "internalType": "string",
          "name": "eligibility",
          "type": "string"
        },
        {
          "internalType": "bool",
          "name": "active",
          "type": "bool"
        },
        {
          "internalType": "uint256",
          "name": "index",
          "type": "uint256"
        }
      ],
      "stateMutability": "view",
      "type": "function"
    },
    {
      "inputs": [],
      "name": "ownerCount",
      "outputs": [
        {
          "internalType": "uint256",
          "name": "",
          "type": "uint256"
        }
      ],
      "stateMutability": "view",
      "type": "function"
    },
    {
      "inputs": [
        {
          "internalType": "uint256",
          "name": "",
          "type": "uint256"
        }
      ],
      "name": "owners",
      "outputs": [
        {
          "internalType": "address",
          "name": "addr",
          "type": "address"
        },
        {
          "internalType": "string",
          "name": "name",
          "type": "string"
        }
      ],
      "stateMutability": "view",
      "type": "function"
    },
    {
      "inputs": [],
      "name": "reportCount",
      "outputs": [
        {
          "internalType": "uint256",
          "name": "",
          "type": "uint256"
        }
      ],
      "stateMutability": "view",
      "type": "function"
    },
    {
      "inputs": [
        {
          "internalType": "uint256",
          "name": "",
          "type": "uint256"
        }
      ],
      "name": "reports",
      "outputs": [
        {
          "internalType": "address",
          "name": "user",
          "type": "address"
        },
        {
          "internalType": "string",
          "name": "comment",
          "type": "string"
        },
        {
          "internalType": "string",
          "name": "file_link",
          "type": "string"
        },
        {
          "internalType": "string",
          "name": "created_on",
          "type": "string"
        },
        {
          "internalType": "string",
          "name": "updated_on",
          "type": "string"
        },
        {
          "internalType": "uint256",
          "name": "index",
          "type": "uint256"
        }
      ],
      "stateMutability": "view",
      "type": "function"
    },
    {
      "inputs": [],
      "name": "userCount",
      "outputs": [
        {
          "internalType": "uint256",
          "name": "",
          "type": "uint256"
        }
      ],
      "stateMutability": "view",
      "type": "function"
    },
    {
      "inputs": [
        {
          "internalType": "uint256",
          "name": "",
          "type": "uint256"
        }
      ],
      "name": "users",
      "outputs": [
        {
          "internalType": "address",
          "name": "addr",
          "type": "address"
        },
        {
          "internalType": "string",
          "name": "name",
          "type": "string"
        },
        {
          "internalType": "string",
          "name": "user_id",
          "type": "string"
        }
      ],
      "stateMutability": "view",
      "type": "function"
    }
  ],
  "bytecode": "0x60806040526000805560006002556000600455600060065560006008556000600a553480156200002e57600080fd5b506004600081548092919062000044906200022b565b9190505550600560405180604001604052803373ffffffffffffffffffffffffffffffffffffffff1681526020016040518060400160405280601281526020017f4d61696e2050726f6a6563742041646d696e0000000000000000000000000000815250815250908060018154018082558091505060019003906000526020600020906002020160009091909190915060008201518160000160006101000a81548173ffffffffffffffffffffffffffffffffffffffff021916908373ffffffffffffffffffffffffffffffffffffffff16021790555060208201518160010190805190602001906200013992919062000142565b505050620002de565b8280546200015090620002a8565b90600052602060002090601f016020900481019282620001745760008555620001c0565b82601f106200018f57805160ff1916838001178555620001c0565b82800160010185558215620001c0579182015b82811115620001bf578251825591602001919060010190620001a2565b5b509050620001cf9190620001d3565b5090565b5b80821115620001ee576000816000905550600101620001d4565b5090565b7f4e487b7100000000000000000000000000000000000000000000000000000000600052601160045260246000fd5b6000819050919050565b6000620002388262000221565b91507fffffffffffffffffffffffffffffffffffffffffffffffffffffffffffffffff8214156200026e576200026d620001f2565b5b600182019050919050565b7f4e487b7100000000000000000000000000000000000000000000000000000000600052602260045260246000fd5b60006002820490506001821680620002c157607f821691505b60208210811415620002d857620002d762000279565b5b50919050565b612d1380620002ee6000396000f3fe608060405234801561001057600080fd5b50600436106101375760003560e01c80634c5d8a0f116100b8578063a0406ce21161007c578063a0406ce21461035b578063c942adf71461038b578063d7554a68146103c0578063eadf7c1d146103dc578063f3aa6716146103f8578063f4c714b41461041457610137565b80634c5d8a0f146102cb5780636bbdb899146102e95780637abfe836146103055780638e75dd47146103215780639d8041321461033f57610137565b8063185c6f84116100ff578063185c6f84146101fb5780632813d19d14610219578063365b98b21461024b5780634209fff11461027d57806343953519146102ad57610137565b8063025e7c271461013c57806307973ccf1461016d5780630a7fac441461018b5780630db02622146101a7578063180aedf3146101c5575b600080fd5b610156600480360381019061015191906121d0565b610449565b6040516101649291906122d7565b60405180910390f35b610175610525565b6040516101829190612316565b60405180910390f35b6101a560048036038101906101a09190612466565b61052b565b005b6101af610655565b6040516101bc9190612316565b60405180910390f35b6101df60048036038101906101da91906121d0565b61065b565b6040516101f29796959493929190612588565b60405180910390f35b610203610962565b6040516102109190612316565b60405180910390f35b610233600480360381019061022e91906121d0565b610968565b6040516102429392919061261a565b60405180910390f35b610265600480360381019061026091906121d0565b610ad2565b6040516102749392919061261a565b60405180910390f35b6102976004803603810190610292919061268b565b610c3c565b6040516102a491906126b8565b60405180910390f35b6102b5610cef565b6040516102c29190612316565b60405180910390f35b6102d3610cf5565b6040516102e09190612316565b60405180910390f35b61030360048036038101906102fe91906126d3565b610cfb565b005b61031f600480360381019061031a91906127a6565b610e5d565b005b610329611357565b6040516103369190612316565b60405180910390f35b61035960048036038101906103549190612875565b61135d565b005b6103756004803603810190610370919061268b565b61149c565b60405161038291906126b8565b60405180910390f35b6103a560048036038101906103a091906121d0565b61154f565b6040516103b79695949392919061298e565b60405180910390f35b6103da60048036038101906103d59190612a0b565b6117db565b005b6103f660048036038101906103f19190612a0b565b6118d7565b005b610412600480360381019061040d9190612a96565b6119d3565b005b61042e600480360381019061042991906121d0565b611db9565b60405161044096959493929190612b51565b60405180910390f35b6005818154811061045957600080fd5b90600052602060002090600202016000915090508060000160009054906101000a900473ffffffffffffffffffffffffffffffffffffffff16908060010180546104a290612c04565b80601f01602080910402602001604051908101604052809291908181526020018280546104ce90612c04565b801561051b5780601f106104f05761010080835404028352916020019161051b565b820191906000526020600020905b8154815290600101906020018083116104fe57829003601f168201915b5050505050905082565b60065481565b6105336120ad565b858160000181905250848160200181905250838160400181905250828160600181905250600a54816080018181525050818160a00181905250600b81908060018154018082558091505060019003906000526020600020906006020160009091909190915060008201518160000190805190602001906105b49291906120e3565b5060208201518160010190805190602001906105d19291906120e3565b5060408201518160020190805190602001906105ee9291906120e3565b50606082015181600301908051906020019061060b9291906120e3565b506080820151816004015560a08201518160050190805190602001906106329291906120e3565b505050600a600081548092919061064890612c65565b9190505550505050505050565b60045481565b6003818154811061066b57600080fd5b906000526020600020906007020160009150905080600001805461068e90612c04565b80601f01602080910402602001604051908101604052809291908181526020018280546106ba90612c04565b80156107075780601f106106dc57610100808354040283529160200191610707565b820191906000526020600020905b8154815290600101906020018083116106ea57829003601f168201915b50505050509080600101805461071c90612c04565b80601f016020809104026020016040519081016040528092919081815260200182805461074890612c04565b80156107955780601f1061076a57610100808354040283529160200191610795565b820191906000526020600020905b81548152906001019060200180831161077857829003601f168201915b5050505050908060020180546107aa90612c04565b80601f01602080910402602001604051908101604052809291908181526020018280546107d690612c04565b80156108235780601f106107f857610100808354040283529160200191610823565b820191906000526020600020905b81548152906001019060200180831161080657829003601f168201915b50505050509080600301805461083890612c04565b80601f016020809104026020016040519081016040528092919081815260200182805461086490612c04565b80156108b15780601f10610886576101008083540402835291602001916108b1565b820191906000526020600020905b81548152906001019060200180831161089457829003601f168201915b5050505050908060040180546108c690612c04565b80601f01602080910402602001604051908101604052809291908181526020018280546108f290612c04565b801561093f5780601f106109145761010080835404028352916020019161093f565b820191906000526020600020905b81548152906001019060200180831161092257829003601f168201915b5050505050908060050160009054906101000a900460ff16908060060154905087565b60005481565b6009818154811061097857600080fd5b90600052602060002090600302016000915090508060000160009054906101000a900473ffffffffffffffffffffffffffffffffffffffff16908060010180546109c190612c04565b80601f01602080910402602001604051908101604052809291908181526020018280546109ed90612c04565b8015610a3a5780601f10610a0f57610100808354040283529160200191610a3a565b820191906000526020600020905b815481529060010190602001808311610a1d57829003601f168201915b505050505090806002018054610a4f90612c04565b80601f0160208091040260200160405190810160405280929190818152602001828054610a7b90612c04565b8015610ac85780601f10610a9d57610100808354040283529160200191610ac8565b820191906000526020600020905b815481529060010190602001808311610aab57829003601f168201915b5050505050905083565b60078181548110610ae257600080fd5b90600052602060002090600302016000915090508060000160009054906101000a900473ffffffffffffffffffffffffffffffffffffffff1690806001018054610b2b90612c04565b80601f0160208091040260200160405190810160405280929190818152602001828054610b5790612c04565b8015610ba45780601f10610b7957610100808354040283529160200191610ba4565b820191906000526020600020905b815481529060010190602001808311610b8757829003601f168201915b505050505090806002018054610bb990612c04565b80601f0160208091040260200160405190810160405280929190818152602001828054610be590612c04565b8015610c325780601f10610c0757610100808354040283529160200191610c32565b820191906000526020600020905b815481529060010190602001808311610c1557829003601f168201915b5050505050905083565b600080600090505b600654811015610ce45760078181548110610c6257610c61612cae565b5b906000526020600020906003020160000160009054906101000a900473ffffffffffffffffffffffffffffffffffffffff1673ffffffffffffffffffffffffffffffffffffffff168373ffffffffffffffffffffffffffffffffffffffff161415610cd1576001915050610cea565b8080610cdc90612c65565b915050610c44565b50600090505b919050565b600a5481565b60025481565b60016040518060c001604052803373ffffffffffffffffffffffffffffffffffffffff168152602001858152602001848152602001838152602001604051806020016040528060008152508152602001600054815250908060018154018082558091505060019003906000526020600020906006020160009091909190915060008201518160000160006101000a81548173ffffffffffffffffffffffffffffffffffffffff021916908373ffffffffffffffffffffffffffffffffffffffff1602179055506020820151816001019080519060200190610ddd9291906120e3565b506040820151816002019080519060200190610dfa9291906120e3565b506060820151816003019080519060200190610e179291906120e3565b506080820151816004019080519060200190610e349291906120e3565b5060a082015181600501555050600080815480929190610e5390612c65565b9190505550505050565b600060038681548110610e7357610e72612cae565b5b90600052602060002090600702016040518060e0016040529081600082018054610e9c90612c04565b80601f0160208091040260200160405190810160405280929190818152602001828054610ec890612c04565b8015610f155780601f10610eea57610100808354040283529160200191610f15565b820191906000526020600020905b815481529060010190602001808311610ef857829003601f168201915b50505050508152602001600182018054610f2e90612c04565b80601f0160208091040260200160405190810160405280929190818152602001828054610f5a90612c04565b8015610fa75780601f10610f7c57610100808354040283529160200191610fa7565b820191906000526020600020905b815481529060010190602001808311610f8a57829003601f168201915b50505050508152602001600282018054610fc090612c04565b80601f0160208091040260200160405190810160405280929190818152602001828054610fec90612c04565b80156110395780601f1061100e57610100808354040283529160200191611039565b820191906000526020600020905b81548152906001019060200180831161101c57829003601f168201915b5050505050815260200160038201805461105290612c04565b80601f016020809104026020016040519081016040528092919081815260200182805461107e90612c04565b80156110cb5780601f106110a0576101008083540402835291602001916110cb565b820191906000526020600020905b8154815290600101906020018083116110ae57829003601f168201915b505050505081526020016004820180546110e490612c04565b80601f016020809104026020016040519081016040528092919081815260200182805461111090612c04565b801561115d5780601f106111325761010080835404028352916020019161115d565b820191906000526020600020905b81548152906001019060200180831161114057829003601f168201915b505050505081526020016005820160009054906101000a900460ff161515151581526020016006820154815250509050848160400181905250838160600181905250828160800181905250818160a0019015159081151581525050600386815481106111cc576111cb612cae565b5b906000526020600020906007020160010180546111e890612c04565b80601f016020809104026020016040519081016040528092919081815260200182805461121490612c04565b80156112615780601f1061123657610100808354040283529160200191611261565b820191906000526020600020905b81548152906001019060200180831161124457829003601f168201915b50505050508160200181905250806003878154811061128357611282612cae565b5b906000526020600020906007020160008201518160000190805190602001906112ad9291906120e3565b5060208201518160010190805190602001906112ca9291906120e3565b5060408201518160020190805190602001906112e79291906120e3565b5060608201518160030190805190602001906113049291906120e3565b5060808201518160040190805190602001906113219291906120e3565b5060a08201518160050160006101000a81548160ff02191690831515021790555060c08201518160060155905050505050505050565b60085481565b60036040518060e001604052808881526020018781526020018681526020018581526020018481526020018315158152602001600254815250908060018154018082558091505060019003906000526020600020906007020160009091909190915060008201518160000190805190602001906113db9291906120e3565b5060208201518160010190805190602001906113f89291906120e3565b5060408201518160020190805190602001906114159291906120e3565b5060608201518160030190805190602001906114329291906120e3565b50608082015181600401908051906020019061144f9291906120e3565b5060a08201518160050160006101000a81548160ff02191690831515021790555060c0820151816006015550506002600081548092919061148f90612c65565b9190505550505050505050565b600080600090505b60085481101561154457600981815481106114c2576114c1612cae565b5b906000526020600020906003020160000160009054906101000a900473ffffffffffffffffffffffffffffffffffffffff1673ffffffffffffffffffffffffffffffffffffffff168373ffffffffffffffffffffffffffffffffffffffff16141561153157600191505061154a565b808061153c90612c65565b9150506114a4565b50600090505b919050565b6001818154811061155f57600080fd5b90600052602060002090600602016000915090508060000160009054906101000a900473ffffffffffffffffffffffffffffffffffffffff16908060010180546115a890612c04565b80601f01602080910402602001604051908101604052809291908181526020018280546115d490612c04565b80156116215780601f106115f657610100808354040283529160200191611621565b820191906000526020600020905b81548152906001019060200180831161160457829003601f168201915b50505050509080600201805461163690612c04565b80601f016020809104026020016040519081016040528092919081815260200182805461166290612c04565b80156116af5780601f10611684576101008083540402835291602001916116af565b820191906000526020600020905b81548152906001019060200180831161169257829003601f168201915b5050505050908060030180546116c490612c04565b80601f01602080910402602001604051908101604052809291908181526020018280546116f090612c04565b801561173d5780601f106117125761010080835404028352916020019161173d565b820191906000526020600020905b81548152906001019060200180831161172057829003601f168201915b50505050509080600401805461175290612c04565b80601f016020809104026020016040519081016040528092919081815260200182805461177e90612c04565b80156117cb5780601f106117a0576101008083540402835291602001916117cb565b820191906000526020600020905b8154815290600101906020018083116117ae57829003601f168201915b5050505050908060050154905086565b600760405180606001604052808573ffffffffffffffffffffffffffffffffffffffff16815260200184815260200183815250908060018154018082558091505060019003906000526020600020906003020160009091909190915060008201518160000160006101000a81548173ffffffffffffffffffffffffffffffffffffffff021916908373ffffffffffffffffffffffffffffffffffffffff160217905550602082015181600101908051906020019061189a9291906120e3565b5060408201518160020190805190602001906118b79291906120e3565b505050600660008154809291906118cd90612c65565b9190505550505050565b600960405180606001604052808573ffffffffffffffffffffffffffffffffffffffff16815260200184815260200183815250908060018154018082558091505060019003906000526020600020906003020160009091909190915060008201518160000160006101000a81548173ffffffffffffffffffffffffffffffffffffffff021916908373ffffffffffffffffffffffffffffffffffffffff16021790555060208201518160010190805190602001906119969291906120e3565b5060408201518160020190805190602001906119b39291906120e3565b505050600660008154809291906119c990612c65565b9190505550505050565b6000600185815481106119e9576119e8612cae565b5b90600052602060002090600602016040518060c00160405290816000820160009054906101000a900473ffffffffffffffffffffffffffffffffffffffff1673ffffffffffffffffffffffffffffffffffffffff1673ffffffffffffffffffffffffffffffffffffffff168152602001600182018054611a6890612c04565b80601f0160208091040260200160405190810160405280929190818152602001828054611a9490612c04565b8015611ae15780601f10611ab657610100808354040283529160200191611ae1565b820191906000526020600020905b815481529060010190602001808311611ac457829003601f168201915b50505050508152602001600282018054611afa90612c04565b80601f0160208091040260200160405190810160405280929190818152602001828054611b2690612c04565b8015611b735780601f10611b4857610100808354040283529160200191611b73565b820191906000526020600020905b815481529060010190602001808311611b5657829003601f168201915b50505050508152602001600382018054611b8c90612c04565b80601f0160208091040260200160405190810160405280929190818152602001828054611bb890612c04565b8015611c055780601f10611bda57610100808354040283529160200191611c05565b820191906000526020600020905b815481529060010190602001808311611be857829003601f168201915b50505050508152602001600482018054611c1e90612c04565b80601f0160208091040260200160405190810160405280929190818152602001828054611c4a90612c04565b8015611c975780601f10611c6c57610100808354040283529160200191611c97565b820191906000526020600020905b815481529060010190602001808311611c7a57829003601f168201915b5050505050815260200160058201548152505090508381602001819052508281604001819052508181608001819052508060018681548110611cdc57611cdb612cae565b5b906000526020600020906006020160008201518160000160006101000a81548173ffffffffffffffffffffffffffffffffffffffff021916908373ffffffffffffffffffffffffffffffffffffffff1602179055506020820151816001019080519060200190611d4d9291906120e3565b506040820151816002019080519060200190611d6a9291906120e3565b506060820151816003019080519060200190611d879291906120e3565b506080820151816004019080519060200190611da49291906120e3565b5060a082015181600501559050505050505050565b600b8181548110611dc957600080fd5b9060005260206000209060060201600091509050806000018054611dec90612c04565b80601f0160208091040260200160405190810160405280929190818152602001828054611e1890612c04565b8015611e655780601f10611e3a57610100808354040283529160200191611e65565b820191906000526020600020905b815481529060010190602001808311611e4857829003601f168201915b505050505090806001018054611e7a90612c04565b80601f0160208091040260200160405190810160405280929190818152602001828054611ea690612c04565b8015611ef35780601f10611ec857610100808354040283529160200191611ef3565b820191906000526020600020905b815481529060010190602001808311611ed657829003601f168201915b505050505090806002018054611f0890612c04565b80601f0160208091040260200160405190810160405280929190818152602001828054611f3490612c04565b8015611f815780601f10611f5657610100808354040283529160200191611f81565b820191906000526020600020905b815481529060010190602001808311611f6457829003601f168201915b505050505090806003018054611f9690612c04565b80601f0160208091040260200160405190810160405280929190818152602001828054611fc290612c04565b801561200f5780601f10611fe45761010080835404028352916020019161200f565b820191906000526020600020905b815481529060010190602001808311611ff257829003601f168201915b50505050509080600401549080600501805461202a90612c04565b80601f016020809104026020016040519081016040528092919081815260200182805461205690612c04565b80156120a35780601f10612078576101008083540402835291602001916120a3565b820191906000526020600020905b81548152906001019060200180831161208657829003601f168201915b5050505050905086565b6040518060c001604052806060815260200160608152602001606081526020016060815260200160008152602001606081525090565b8280546120ef90612c04565b90600052602060002090601f0160209004810192826121115760008555612158565b82601f1061212a57805160ff1916838001178555612158565b82800160010185558215612158579182015b8281111561215757825182559160200191906001019061213c565b5b5090506121659190612169565b5090565b5b8082111561218257600081600090555060010161216a565b5090565b6000604051905090565b600080fd5b600080fd5b6000819050919050565b6121ad8161219a565b81146121b857600080fd5b50565b6000813590506121ca816121a4565b92915050565b6000602082840312156121e6576121e5612190565b5b60006121f4848285016121bb565b91505092915050565b600073ffffffffffffffffffffffffffffffffffffffff82169050919050565b6000612228826121fd565b9050919050565b6122388161221d565b82525050565b600081519050919050565b600082825260208201905092915050565b60005b8381101561227857808201518184015260208101905061225d565b83811115612287576000848401525b50505050565b6000601f19601f8301169050919050565b60006122a98261223e565b6122b38185612249565b93506122c381856020860161225a565b6122cc8161228d565b840191505092915050565b60006040820190506122ec600083018561222f565b81810360208301526122fe818461229e565b90509392505050565b6123108161219a565b82525050565b600060208201905061232b6000830184612307565b92915050565b600080fd5b600080fd5b7f4e487b7100000000000000000000000000000000000000000000000000000000600052604160045260246000fd5b6123738261228d565b810181811067ffffffffffffffff821117156123925761239161233b565b5b80604052505050565b60006123a5612186565b90506123b1828261236a565b919050565b600067ffffffffffffffff8211156123d1576123d061233b565b5b6123da8261228d565b9050602081019050919050565b82818337600083830152505050565b6000612409612404846123b6565b61239b565b90508281526020810184848401111561242557612424612336565b5b6124308482856123e7565b509392505050565b600082601f83011261244d5761244c612331565b5b813561245d8482602086016123f6565b91505092915050565b600080600080600060a0868803121561248257612481612190565b5b600086013567ffffffffffffffff8111156124a05761249f612195565b5b6124ac88828901612438565b955050602086013567ffffffffffffffff8111156124cd576124cc612195565b5b6124d988828901612438565b945050604086013567ffffffffffffffff8111156124fa576124f9612195565b5b61250688828901612438565b935050606086013567ffffffffffffffff81111561252757612526612195565b5b61253388828901612438565b925050608086013567ffffffffffffffff81111561255457612553612195565b5b61256088828901612438565b9150509295509295909350565b60008115159050919050565b6125828161256d565b82525050565b600060e08201905081810360008301526125a2818a61229e565b905081810360208301526125b6818961229e565b905081810360408301526125ca818861229e565b905081810360608301526125de818761229e565b905081810360808301526125f2818661229e565b905061260160a0830185612579565b61260e60c0830184612307565b98975050505050505050565b600060608201905061262f600083018661222f565b8181036020830152612641818561229e565b90508181036040830152612655818461229e565b9050949350505050565b6126688161221d565b811461267357600080fd5b50565b6000813590506126858161265f565b92915050565b6000602082840312156126a1576126a0612190565b5b60006126af84828501612676565b91505092915050565b60006020820190506126cd6000830184612579565b92915050565b6000806000606084860312156126ec576126eb612190565b5b600084013567ffffffffffffffff81111561270a57612709612195565b5b61271686828701612438565b935050602084013567ffffffffffffffff81111561273757612736612195565b5b61274386828701612438565b925050604084013567ffffffffffffffff81111561276457612763612195565b5b61277086828701612438565b9150509250925092565b6127838161256d565b811461278e57600080fd5b50565b6000813590506127a08161277a565b92915050565b600080600080600060a086880312156127c2576127c1612190565b5b60006127d0888289016121bb565b955050602086013567ffffffffffffffff8111156127f1576127f0612195565b5b6127fd88828901612438565b945050604086013567ffffffffffffffff81111561281e5761281d612195565b5b61282a88828901612438565b935050606086013567ffffffffffffffff81111561284b5761284a612195565b5b61285788828901612438565b925050608061286888828901612791565b9150509295509295909350565b60008060008060008060c0878903121561289257612891612190565b5b600087013567ffffffffffffffff8111156128b0576128af612195565b5b6128bc89828a01612438565b965050602087013567ffffffffffffffff8111156128dd576128dc612195565b5b6128e989828a01612438565b955050604087013567ffffffffffffffff81111561290a57612909612195565b5b61291689828a01612438565b945050606087013567ffffffffffffffff81111561293757612936612195565b5b61294389828a01612438565b935050608087013567ffffffffffffffff81111561296457612963612195565b5b61297089828a01612438565b92505060a061298189828a01612791565b9150509295509295509295565b600060c0820190506129a3600083018961222f565b81810360208301526129b5818861229e565b905081810360408301526129c9818761229e565b905081810360608301526129dd818661229e565b905081810360808301526129f1818561229e565b9050612a0060a0830184612307565b979650505050505050565b600080600060608486031215612a2457612a23612190565b5b6000612a3286828701612676565b935050602084013567ffffffffffffffff811115612a5357612a52612195565b5b612a5f86828701612438565b925050604084013567ffffffffffffffff811115612a8057612a7f612195565b5b612a8c86828701612438565b9150509250925092565b60008060008060808587031215612ab057612aaf612190565b5b6000612abe878288016121bb565b945050602085013567ffffffffffffffff811115612adf57612ade612195565b5b612aeb87828801612438565b935050604085013567ffffffffffffffff811115612b0c57612b0b612195565b5b612b1887828801612438565b925050606085013567ffffffffffffffff811115612b3957612b38612195565b5b612b4587828801612438565b91505092959194509250565b600060c0820190508181036000830152612b6b818961229e565b90508181036020830152612b7f818861229e565b90508181036040830152612b93818761229e565b90508181036060830152612ba7818661229e565b9050612bb66080830185612307565b81810360a0830152612bc8818461229e565b9050979650505050505050565b7f4e487b7100000000000000000000000000000000000000000000000000000000600052602260045260246000fd5b60006002820490506001821680612c1c57607f821691505b60208210811415612c3057612c2f612bd5565b5b50919050565b7f4e487b7100000000000000000000000000000000000000000000000000000000600052601160045260246000fd5b6000612c708261219a565b91507fffffffffffffffffffffffffffffffffffffffffffffffffffffffffffffffff821415612ca357612ca2612c36565b5b600182019050919050565b7f4e487b7100000000000000000000000000000000000000000000000000000000600052603260045260246000fdfea264697066735822122027008f493877dfb7ad84597f7269efd8f39563fe7c9fb0eaefc41c31d191dd7c64736f6c63430008090033",
  "linkReferences": {},
  "deployedLinkReferences": {}
}