{
  "_format": "hh-sol-artifact-1",
  "contractName": "MainProject",
  "sourceName": "contracts/MainProject.sol",
  "abi": [
    {
      "inputs": [],
      "stateMutability": "nonpayable",
      "type": "constructor"
    },
    {
      "inputs": [
        {
          "internalType": "address",
          "name": "_addr",
          "type": "address"
        },
        {
          "internalType": "string",
          "name": "_name",
          "type": "string"
        },
        {
          "internalType": "string",
          "name": "_company_id",
          "type": "string"
        }
      ],
      "name": "addCompany",
      "outputs": [],
      "stateMutability": "nonpayable",
      "type": "function"
    },
    {
      "inputs": [
        {
          "internalType": "string",
          "name": "_link",
          "type": "string"
        },
        {
          "internalType": "string",
          "name": "_title",
          "type": "string"
        },
        {
          "internalType": "string",
          "name": "_description",
          "type": "string"
        },
        {
          "internalType": "string",
          "name": "_uploaded_on",
          "type": "string"
        },
        {
          "internalType": "string",
          "name": "_id",
          "type": "string"
        }
      ],
      "name": "addFile",
      "outputs": [],
      "stateMutability": "nonpayable",
      "type": "function"
    },
    {
      "inputs": [
        {
          "internalType": "string",
          "name": "_company_id",
          "type": "string"
        },
        {
          "internalType": "string",
          "name": "_title",
          "type": "string"
        },
        {
          "internalType": "string",
          "name": "_description",
          "type": "string"
        },
        {
          "internalType": "string",
          "name": "_requirements",
          "type": "string"
        },
        {
          "internalType": "string",
          "name": "_eligibility",
          "type": "string"
        },
        {
          "internalType": "string",
          "name": "_responsibilities",
          "type": "string"
        },
        {
          "internalType": "string",
          "name": "_link",
          "type": "string"
        },
        {
          "internalType": "bool",
          "name": "_active",
          "type": "bool"
        }
      ],
      "name": "addJob",
      "outputs": [],
      "stateMutability": "nonpayable",
      "type": "function"
    },
    {
      "inputs": [
        {
          "internalType": "string",
          "name": "_comment",
          "type": "string"
        },
        {
          "internalType": "string",
          "name": "_file_link",
          "type": "string"
        },
        {
          "internalType": "string",
          "name": "created_on",
          "type": "string"
        },
        {
          "internalType": "string",
          "name": "_creator_id",
          "type": "string"
        },
        {
          "internalType": "string",
          "name": "_creatorType",
          "type": "string"
        },
        {
          "internalType": "uint256",
          "name": "_job_id",
          "type": "uint256"
        }
      ],
      "name": "addReport",
      "outputs": [],
      "stateMutability": "nonpayable",
      "type": "function"
    },
    {
      "inputs": [
        {
          "internalType": "address",
          "name": "_addr",
          "type": "address"
        },
        {
          "internalType": "string",
          "name": "_name",
          "type": "string"
        },
        {
          "internalType": "string",
          "name": "_user_id",
          "type": "string"
        }
      ],
      "name": "addUser",
      "outputs": [],
      "stateMutability": "nonpayable",
      "type": "function"
    },
    {
      "inputs": [
        {
          "internalType": "uint256",
          "name": "",
          "type": "uint256"
        }
      ],
      "name": "companies",
      "outputs": [
        {
          "internalType": "address",
          "name": "addr",
          "type": "address"
        },
        {
          "internalType": "string",
          "name": "name",
          "type": "string"
        },
        {
          "internalType": "string",
          "name": "company_id",
          "type": "string"
        }
      ],
      "stateMutability": "view",
      "type": "function"
    },
    {
      "inputs": [],
      "name": "companyCount",
      "outputs": [
        {
          "internalType": "uint256",
          "name": "",
          "type": "uint256"
        }
      ],
      "stateMutability": "view",
      "type": "function"
    },
    {
      "inputs": [
        {
          "internalType": "uint256",
          "name": "_index",
          "type": "uint256"
        },
        {
          "internalType": "string",
          "name": "_description",
          "type": "string"
        },
        {
          "internalType": "string",
          "name": "_requirements",
          "type": "string"
        },
        {
          "internalType": "string",
          "name": "_eligibility",
          "type": "string"
        },
        {
          "internalType": "bool",
          "name": "_active",
          "type": "bool"
        }
      ],
      "name": "editJob",
      "outputs": [],
      "stateMutability": "nonpayable",
      "type": "function"
    },
    {
      "inputs": [],
      "name": "fileCount",
      "outputs": [
        {
          "internalType": "uint256",
          "name": "",
          "type": "uint256"
        }
      ],
      "stateMutability": "view",
      "type": "function"
    },
    {
      "inputs": [
        {
          "internalType": "uint256",
          "name": "",
          "type": "uint256"
        }
      ],
      "name": "files",
      "outputs": [
        {
          "internalType": "string",
          "name": "link",
          "type": "string"
        },
        {
          "internalType": "string",
          "name": "title",
          "type": "string"
        },
        {
          "internalType": "string",
          "name": "description",
          "type": "string"
        },
        {
          "internalType": "string",
          "name": "uploaded_on",
          "type": "string"
        },
        {
          "internalType": "uint256",
          "name": "index",
          "type": "uint256"
        },
        {
          "internalType": "string",
          "name": "id",
          "type": "string"
        }
      ],
      "stateMutability": "view",
      "type": "function"
    },
    {
      "inputs": [
        {
          "internalType": "address",
          "name": "_addr",
          "type": "address"
        }
      ],
      "name": "isCompany",
      "outputs": [
        {
          "internalType": "bool",
          "name": "",
          "type": "bool"
        }
      ],
      "stateMutability": "view",
      "type": "function"
    },
    {
      "inputs": [
        {
          "internalType": "address",
          "name": "_addr",
          "type": "address"
        }
      ],
      "name": "isUser",
      "outputs": [
        {
          "internalType": "bool",
          "name": "",
          "type": "bool"
        }
      ],
      "stateMutability": "view",
      "type": "function"
    },
    {
      "inputs": [],
      "name": "jobCount",
      "outputs": [
        {
          "internalType": "uint256",
          "name": "",
          "type": "uint256"
        }
      ],
      "stateMutability": "view",
      "type": "function"
    },
    {
      "inputs": [
        {
          "internalType": "uint256",
          "name": "",
          "type": "uint256"
        }
      ],
      "name": "jobs",
      "outputs": [
        {
          "internalType": "string",
          "name": "company_id",
          "type": "string"
        },
        {
          "internalType": "string",
          "name": "title",
          "type": "string"
        },
        {
          "internalType": "string",
          "name": "description",
          "type": "string"
        },
        {
          "internalType": "string",
          "name": "requirements",
          "type": "string"
        },
        {
          "internalType": "string",
          "name": "eligibility",
          "type": "string"
        },
        {
          "internalType": "string",
          "name": "responsibilities",
          "type": "string"
        },
        {
          "internalType": "string",
          "name": "link",
          "type": "string"
        },
        {
          "internalType": "bool",
          "name": "active",
          "type": "bool"
        },
        {
          "internalType": "uint256",
          "name": "index",
          "type": "uint256"
        }
      ],
      "stateMutability": "view",
      "type": "function"
    },
    {
      "inputs": [],
      "name": "ownerCount",
      "outputs": [
        {
          "internalType": "uint256",
          "name": "",
          "type": "uint256"
        }
      ],
      "stateMutability": "view",
      "type": "function"
    },
    {
      "inputs": [
        {
          "internalType": "uint256",
          "name": "",
          "type": "uint256"
        }
      ],
      "name": "owners",
      "outputs": [
        {
          "internalType": "address",
          "name": "addr",
          "type": "address"
        },
        {
          "internalType": "string",
          "name": "name",
          "type": "string"
        }
      ],
      "stateMutability": "view",
      "type": "function"
    },
    {
      "inputs": [],
      "name": "reportCount",
      "outputs": [
        {
          "internalType": "uint256",
          "name": "",
          "type": "uint256"
        }
      ],
      "stateMutability": "view",
      "type": "function"
    },
    {
      "inputs": [
        {
          "internalType": "uint256",
          "name": "",
          "type": "uint256"
        }
      ],
      "name": "reports",
      "outputs": [
        {
          "internalType": "uint256",
          "name": "job_id",
          "type": "uint256"
        },
        {
          "internalType": "string",
          "name": "creator_id",
          "type": "string"
        },
        {
          "internalType": "string",
          "name": "creator_type",
          "type": "string"
        },
        {
          "internalType": "string",
          "name": "comment",
          "type": "string"
        },
        {
          "internalType": "string",
          "name": "file_link",
          "type": "string"
        },
        {
          "internalType": "string",
          "name": "created_on",
          "type": "string"
        },
        {
          "internalType": "uint256",
          "name": "index",
          "type": "uint256"
        }
      ],
      "stateMutability": "view",
      "type": "function"
    },
    {
      "inputs": [],
      "name": "userCount",
      "outputs": [
        {
          "internalType": "uint256",
          "name": "",
          "type": "uint256"
        }
      ],
      "stateMutability": "view",
      "type": "function"
    },
    {
      "inputs": [
        {
          "internalType": "uint256",
          "name": "",
          "type": "uint256"
        }
      ],
      "name": "users",
      "outputs": [
        {
          "internalType": "address",
          "name": "addr",
          "type": "address"
        },
        {
          "internalType": "string",
          "name": "name",
          "type": "string"
        },
        {
          "internalType": "string",
          "name": "user_id",
          "type": "string"
        }
      ],
      "stateMutability": "view",
      "type": "function"
    }
  ],
  "bytecode": "0x60806040526000805560006002556000600455600060065560006008556000600a553480156200002e57600080fd5b506004600081548092919062000044906200022b565b9190505550600560405180604001604052803373ffffffffffffffffffffffffffffffffffffffff1681526020016040518060400160405280601281526020017f4d61696e2050726f6a6563742041646d696e0000000000000000000000000000815250815250908060018154018082558091505060019003906000526020600020906002020160009091909190915060008201518160000160006101000a81548173ffffffffffffffffffffffffffffffffffffffff021916908373ffffffffffffffffffffffffffffffffffffffff16021790555060208201518160010190805190602001906200013992919062000142565b505050620002de565b8280546200015090620002a8565b90600052602060002090601f016020900481019282620001745760008555620001c0565b82601f106200018f57805160ff1916838001178555620001c0565b82800160010185558215620001c0579182015b82811115620001bf578251825591602001919060010190620001a2565b5b509050620001cf9190620001d3565b5090565b5b80821115620001ee576000816000905550600101620001d4565b5090565b7f4e487b7100000000000000000000000000000000000000000000000000000000600052601160045260246000fd5b6000819050919050565b6000620002388262000221565b91507fffffffffffffffffffffffffffffffffffffffffffffffffffffffffffffffff8214156200026e576200026d620001f2565b5b600182019050919050565b7f4e487b7100000000000000000000000000000000000000000000000000000000600052602260045260246000fd5b60006002820490506001821680620002c157607f821691505b60208210811415620002d857620002d762000279565b5b50919050565b612c5a80620002ee6000396000f3fe608060405234801561001057600080fd5b506004361061012c5760003560e01c806343953519116100ad578063c942adf711610071578063c942adf714610366578063d010aa1d1461039c578063d7554a68146103b8578063eadf7c1d146103d4578063f4c714b4146103f05761012c565b806343953519146102c05780634c5d8a0f146102de5780637abfe836146102fc5780638e75dd4714610318578063a0406ce2146103365761012c565b8063180aedf3116100f4578063180aedf3146101d6578063185c6f841461020e5780632813d19d1461022c578063365b98b21461025e5780634209fff1146102905761012c565b8063025e7c2714610131578063060d754f1461016257806307973ccf1461017e5780630a7fac441461019c5780630db02622146101b8575b600080fd5b61014b600480360381019061014691906120be565b610425565b6040516101599291906121c5565b60405180910390f35b61017c60048036038101906101779190612362565b610501565b005b61018661068a565b60405161019391906124eb565b60405180910390f35b6101b660048036038101906101b19190612506565b610690565b005b6101c06107ba565b6040516101cd91906124eb565b60405180910390f35b6101f060048036038101906101eb91906120be565b6107c0565b6040516102059998979695949392919061261c565b60405180910390f35b610216610be3565b60405161022391906124eb565b60405180910390f35b610246600480360381019061024191906120be565b610be9565b604051610255939291906126da565b60405180910390f35b610278600480360381019061027391906120be565b610d53565b604051610287939291906126da565b60405180910390f35b6102aa60048036038101906102a5919061274b565b610ebd565b6040516102b79190612778565b60405180910390f35b6102c8610f70565b6040516102d591906124eb565b60405180910390f35b6102e6610f76565b6040516102f391906124eb565b60405180910390f35b61031660048036038101906103119190612793565b610f7c565b005b6103206115d6565b60405161032d91906124eb565b60405180910390f35b610350600480360381019061034b919061274b565b6115dc565b60405161035d9190612778565b60405180910390f35b610380600480360381019061037b91906120be565b61168f565b6040516103939796959493929190612862565b60405180910390f35b6103b660048036038101906103b191906128f4565b611989565b005b6103d260048036038101906103cd9190612a0d565b611aaf565b005b6103ee60048036038101906103e99190612a0d565b611bab565b005b61040a600480360381019061040591906120be565b611ca7565b60405161041c96959493929190612a98565b60405180910390f35b6005818154811061043557600080fd5b90600052602060002090600202016000915090508060000160009054906101000a900473ffffffffffffffffffffffffffffffffffffffff169080600101805461047e90612b4b565b80601f01602080910402602001604051908101604052809291908181526020018280546104aa90612b4b565b80156104f75780601f106104cc576101008083540402835291602001916104f7565b820191906000526020600020905b8154815290600101906020018083116104da57829003601f168201915b5050505050905082565b60036040518061012001604052808a815260200189815260200188815260200187815260200186815260200185815260200184815260200183151581526020016002548152509080600181540180825580915050600190039060005260206000209060090201600090919091909150600082015181600001908051906020019061058c929190611f9b565b5060208201518160010190805190602001906105a9929190611f9b565b5060408201518160020190805190602001906105c6929190611f9b565b5060608201518160030190805190602001906105e3929190611f9b565b506080820151816004019080519060200190610600929190611f9b565b5060a082015181600501908051906020019061061d929190611f9b565b5060c082015181600601908051906020019061063a929190611f9b565b5060e08201518160070160006101000a81548160ff021916908315150217905550610100820151816008015550506002600081548092919061067b90612bac565b91905055505050505050505050565b60065481565b610698612021565b858160000181905250848160200181905250838160400181905250828160600181905250600a54816080018181525050818160a00181905250600b8190806001815401808255809150506001900390600052602060002090600602016000909190919091506000820151816000019080519060200190610719929190611f9b565b506020820151816001019080519060200190610736929190611f9b565b506040820151816002019080519060200190610753929190611f9b565b506060820151816003019080519060200190610770929190611f9b565b506080820151816004015560a0820151816005019080519060200190610797929190611f9b565b505050600a60008154809291906107ad90612bac565b9190505550505050505050565b60045481565b600381815481106107d057600080fd5b90600052602060002090600902016000915090508060000180546107f390612b4b565b80601f016020809104026020016040519081016040528092919081815260200182805461081f90612b4b565b801561086c5780601f106108415761010080835404028352916020019161086c565b820191906000526020600020905b81548152906001019060200180831161084f57829003601f168201915b50505050509080600101805461088190612b4b565b80601f01602080910402602001604051908101604052809291908181526020018280546108ad90612b4b565b80156108fa5780601f106108cf576101008083540402835291602001916108fa565b820191906000526020600020905b8154815290600101906020018083116108dd57829003601f168201915b50505050509080600201805461090f90612b4b565b80601f016020809104026020016040519081016040528092919081815260200182805461093b90612b4b565b80156109885780601f1061095d57610100808354040283529160200191610988565b820191906000526020600020905b81548152906001019060200180831161096b57829003601f168201915b50505050509080600301805461099d90612b4b565b80601f01602080910402602001604051908101604052809291908181526020018280546109c990612b4b565b8015610a165780601f106109eb57610100808354040283529160200191610a16565b820191906000526020600020905b8154815290600101906020018083116109f957829003601f168201915b505050505090806004018054610a2b90612b4b565b80601f0160208091040260200160405190810160405280929190818152602001828054610a5790612b4b565b8015610aa45780601f10610a7957610100808354040283529160200191610aa4565b820191906000526020600020905b815481529060010190602001808311610a8757829003601f168201915b505050505090806005018054610ab990612b4b565b80601f0160208091040260200160405190810160405280929190818152602001828054610ae590612b4b565b8015610b325780601f10610b0757610100808354040283529160200191610b32565b820191906000526020600020905b815481529060010190602001808311610b1557829003601f168201915b505050505090806006018054610b4790612b4b565b80601f0160208091040260200160405190810160405280929190818152602001828054610b7390612b4b565b8015610bc05780601f10610b9557610100808354040283529160200191610bc0565b820191906000526020600020905b815481529060010190602001808311610ba357829003601f168201915b5050505050908060070160009054906101000a900460ff16908060080154905089565b60005481565b60098181548110610bf957600080fd5b90600052602060002090600302016000915090508060000160009054906101000a900473ffffffffffffffffffffffffffffffffffffffff1690806001018054610c4290612b4b565b80601f0160208091040260200160405190810160405280929190818152602001828054610c6e90612b4b565b8015610cbb5780601f10610c9057610100808354040283529160200191610cbb565b820191906000526020600020905b815481529060010190602001808311610c9e57829003601f168201915b505050505090806002018054610cd090612b4b565b80601f0160208091040260200160405190810160405280929190818152602001828054610cfc90612b4b565b8015610d495780601f10610d1e57610100808354040283529160200191610d49565b820191906000526020600020905b815481529060010190602001808311610d2c57829003601f168201915b5050505050905083565b60078181548110610d6357600080fd5b90600052602060002090600302016000915090508060000160009054906101000a900473ffffffffffffffffffffffffffffffffffffffff1690806001018054610dac90612b4b565b80601f0160208091040260200160405190810160405280929190818152602001828054610dd890612b4b565b8015610e255780601f10610dfa57610100808354040283529160200191610e25565b820191906000526020600020905b815481529060010190602001808311610e0857829003601f168201915b505050505090806002018054610e3a90612b4b565b80601f0160208091040260200160405190810160405280929190818152602001828054610e6690612b4b565b8015610eb35780601f10610e8857610100808354040283529160200191610eb3565b820191906000526020600020905b815481529060010190602001808311610e9657829003601f168201915b5050505050905083565b600080600090505b600654811015610f655760078181548110610ee357610ee2612bf5565b5b906000526020600020906003020160000160009054906101000a900473ffffffffffffffffffffffffffffffffffffffff1673ffffffffffffffffffffffffffffffffffffffff168373ffffffffffffffffffffffffffffffffffffffff161415610f52576001915050610f6b565b8080610f5d90612bac565b915050610ec5565b50600090505b919050565b600a5481565b60025481565b600060038681548110610f9257610f91612bf5565b5b906000526020600020906009020160405180610120016040529081600082018054610fbc90612b4b565b80601f0160208091040260200160405190810160405280929190818152602001828054610fe890612b4b565b80156110355780601f1061100a57610100808354040283529160200191611035565b820191906000526020600020905b81548152906001019060200180831161101857829003601f168201915b5050505050815260200160018201805461104e90612b4b565b80601f016020809104026020016040519081016040528092919081815260200182805461107a90612b4b565b80156110c75780601f1061109c576101008083540402835291602001916110c7565b820191906000526020600020905b8154815290600101906020018083116110aa57829003601f168201915b505050505081526020016002820180546110e090612b4b565b80601f016020809104026020016040519081016040528092919081815260200182805461110c90612b4b565b80156111595780601f1061112e57610100808354040283529160200191611159565b820191906000526020600020905b81548152906001019060200180831161113c57829003601f168201915b5050505050815260200160038201805461117290612b4b565b80601f016020809104026020016040519081016040528092919081815260200182805461119e90612b4b565b80156111eb5780601f106111c0576101008083540402835291602001916111eb565b820191906000526020600020905b8154815290600101906020018083116111ce57829003601f168201915b5050505050815260200160048201805461120490612b4b565b80601f016020809104026020016040519081016040528092919081815260200182805461123090612b4b565b801561127d5780601f106112525761010080835404028352916020019161127d565b820191906000526020600020905b81548152906001019060200180831161126057829003601f168201915b5050505050815260200160058201805461129690612b4b565b80601f01602080910402602001604051908101604052809291908181526020018280546112c290612b4b565b801561130f5780601f106112e45761010080835404028352916020019161130f565b820191906000526020600020905b8154815290600101906020018083116112f257829003601f168201915b5050505050815260200160068201805461132890612b4b565b80601f016020809104026020016040519081016040528092919081815260200182805461135490612b4b565b80156113a15780601f10611376576101008083540402835291602001916113a1565b820191906000526020600020905b81548152906001019060200180831161138457829003601f168201915b505050505081526020016007820160009054906101000a900460ff161515151581526020016008820154815250509050848160400181905250838160600181905250828160800181905250818160e0019015159081151581525050600386815481106114105761140f612bf5565b5b9060005260206000209060090201600101805461142c90612b4b565b80601f016020809104026020016040519081016040528092919081815260200182805461145890612b4b565b80156114a55780601f1061147a576101008083540402835291602001916114a5565b820191906000526020600020905b81548152906001019060200180831161148857829003601f168201915b5050505050816020018190525080600387815481106114c7576114c6612bf5565b5b906000526020600020906009020160008201518160000190805190602001906114f1929190611f9b565b50602082015181600101908051906020019061150e929190611f9b565b50604082015181600201908051906020019061152b929190611f9b565b506060820151816003019080519060200190611548929190611f9b565b506080820151816004019080519060200190611565929190611f9b565b5060a0820151816005019080519060200190611582929190611f9b565b5060c082015181600601908051906020019061159f929190611f9b565b5060e08201518160070160006101000a81548160ff0219169083151502179055506101008201518160080155905050505050505050565b60085481565b600080600090505b600854811015611684576009818154811061160257611601612bf5565b5b906000526020600020906003020160000160009054906101000a900473ffffffffffffffffffffffffffffffffffffffff1673ffffffffffffffffffffffffffffffffffffffff168373ffffffffffffffffffffffffffffffffffffffff16141561167157600191505061168a565b808061167c90612bac565b9150506115e4565b50600090505b919050565b6001818154811061169f57600080fd5b90600052602060002090600702016000915090508060000154908060010180546116c890612b4b565b80601f01602080910402602001604051908101604052809291908181526020018280546116f490612b4b565b80156117415780601f1061171657610100808354040283529160200191611741565b820191906000526020600020905b81548152906001019060200180831161172457829003601f168201915b50505050509080600201805461175690612b4b565b80601f016020809104026020016040519081016040528092919081815260200182805461178290612b4b565b80156117cf5780601f106117a4576101008083540402835291602001916117cf565b820191906000526020600020905b8154815290600101906020018083116117b257829003601f168201915b5050505050908060030180546117e490612b4b565b80601f016020809104026020016040519081016040528092919081815260200182805461181090612b4b565b801561185d5780601f106118325761010080835404028352916020019161185d565b820191906000526020600020905b81548152906001019060200180831161184057829003601f168201915b50505050509080600401805461187290612b4b565b80601f016020809104026020016040519081016040528092919081815260200182805461189e90612b4b565b80156118eb5780601f106118c0576101008083540402835291602001916118eb565b820191906000526020600020905b8154815290600101906020018083116118ce57829003601f168201915b50505050509080600501805461190090612b4b565b80601f016020809104026020016040519081016040528092919081815260200182805461192c90612b4b565b80156119795780601f1061194e57610100808354040283529160200191611979565b820191906000526020600020905b81548152906001019060200180831161195c57829003601f168201915b5050505050908060060154905087565b60016040518060e001604052808381526020018581526020018481526020018881526020018781526020018681526020016000548152509080600181540180825580915050600190039060005260206000209060070201600090919091909150600082015181600001556020820151816001019080519060200190611a0f929190611f9b565b506040820151816002019080519060200190611a2c929190611f9b565b506060820151816003019080519060200190611a49929190611f9b565b506080820151816004019080519060200190611a66929190611f9b565b5060a0820151816005019080519060200190611a83929190611f9b565b5060c082015181600601555050600080815480929190611aa290612bac565b9190505550505050505050565b600760405180606001604052808573ffffffffffffffffffffffffffffffffffffffff16815260200184815260200183815250908060018154018082558091505060019003906000526020600020906003020160009091909190915060008201518160000160006101000a81548173ffffffffffffffffffffffffffffffffffffffff021916908373ffffffffffffffffffffffffffffffffffffffff1602179055506020820151816001019080519060200190611b6e929190611f9b565b506040820151816002019080519060200190611b8b929190611f9b565b50505060066000815480929190611ba190612bac565b9190505550505050565b600960405180606001604052808573ffffffffffffffffffffffffffffffffffffffff16815260200184815260200183815250908060018154018082558091505060019003906000526020600020906003020160009091909190915060008201518160000160006101000a81548173ffffffffffffffffffffffffffffffffffffffff021916908373ffffffffffffffffffffffffffffffffffffffff1602179055506020820151816001019080519060200190611c6a929190611f9b565b506040820151816002019080519060200190611c87929190611f9b565b50505060066000815480929190611c9d90612bac565b9190505550505050565b600b8181548110611cb757600080fd5b9060005260206000209060060201600091509050806000018054611cda90612b4b565b80601f0160208091040260200160405190810160405280929190818152602001828054611d0690612b4b565b8015611d535780601f10611d2857610100808354040283529160200191611d53565b820191906000526020600020905b815481529060010190602001808311611d3657829003601f168201915b505050505090806001018054611d6890612b4b565b80601f0160208091040260200160405190810160405280929190818152602001828054611d9490612b4b565b8015611de15780601f10611db657610100808354040283529160200191611de1565b820191906000526020600020905b815481529060010190602001808311611dc457829003601f168201915b505050505090806002018054611df690612b4b565b80601f0160208091040260200160405190810160405280929190818152602001828054611e2290612b4b565b8015611e6f5780601f10611e4457610100808354040283529160200191611e6f565b820191906000526020600020905b815481529060010190602001808311611e5257829003601f168201915b505050505090806003018054611e8490612b4b565b80601f0160208091040260200160405190810160405280929190818152602001828054611eb090612b4b565b8015611efd5780601f10611ed257610100808354040283529160200191611efd565b820191906000526020600020905b815481529060010190602001808311611ee057829003601f168201915b505050505090806004015490806005018054611f1890612b4b565b80601f0160208091040260200160405190810160405280929190818152602001828054611f4490612b4b565b8015611f915780601f10611f6657610100808354040283529160200191611f91565b820191906000526020600020905b815481529060010190602001808311611f7457829003601f168201915b5050505050905086565b828054611fa790612b4b565b90600052602060002090601f016020900481019282611fc95760008555612010565b82601f10611fe257805160ff1916838001178555612010565b82800160010185558215612010579182015b8281111561200f578251825591602001919060010190611ff4565b5b50905061201d9190612057565b5090565b6040518060c001604052806060815260200160608152602001606081526020016060815260200160008152602001606081525090565b5b80821115612070576000816000905550600101612058565b5090565b6000604051905090565b600080fd5b600080fd5b6000819050919050565b61209b81612088565b81146120a657600080fd5b50565b6000813590506120b881612092565b92915050565b6000602082840312156120d4576120d361207e565b5b60006120e2848285016120a9565b91505092915050565b600073ffffffffffffffffffffffffffffffffffffffff82169050919050565b6000612116826120eb565b9050919050565b6121268161210b565b82525050565b600081519050919050565b600082825260208201905092915050565b60005b8381101561216657808201518184015260208101905061214b565b83811115612175576000848401525b50505050565b6000601f19601f8301169050919050565b60006121978261212c565b6121a18185612137565b93506121b1818560208601612148565b6121ba8161217b565b840191505092915050565b60006040820190506121da600083018561211d565b81810360208301526121ec818461218c565b90509392505050565b600080fd5b600080fd5b7f4e487b7100000000000000000000000000000000000000000000000000000000600052604160045260246000fd5b6122378261217b565b810181811067ffffffffffffffff82111715612256576122556121ff565b5b80604052505050565b6000612269612074565b9050612275828261222e565b919050565b600067ffffffffffffffff821115612295576122946121ff565b5b61229e8261217b565b9050602081019050919050565b82818337600083830152505050565b60006122cd6122c88461227a565b61225f565b9050828152602081018484840111156122e9576122e86121fa565b5b6122f48482856122ab565b509392505050565b600082601f830112612311576123106121f5565b5b81356123218482602086016122ba565b91505092915050565b60008115159050919050565b61233f8161232a565b811461234a57600080fd5b50565b60008135905061235c81612336565b92915050565b600080600080600080600080610100898b0312156123835761238261207e565b5b600089013567ffffffffffffffff8111156123a1576123a0612083565b5b6123ad8b828c016122fc565b985050602089013567ffffffffffffffff8111156123ce576123cd612083565b5b6123da8b828c016122fc565b975050604089013567ffffffffffffffff8111156123fb576123fa612083565b5b6124078b828c016122fc565b965050606089013567ffffffffffffffff81111561242857612427612083565b5b6124348b828c016122fc565b955050608089013567ffffffffffffffff81111561245557612454612083565b5b6124618b828c016122fc565b94505060a089013567ffffffffffffffff81111561248257612481612083565b5b61248e8b828c016122fc565b93505060c089013567ffffffffffffffff8111156124af576124ae612083565b5b6124bb8b828c016122fc565b92505060e06124cc8b828c0161234d565b9150509295985092959890939650565b6124e581612088565b82525050565b600060208201905061250060008301846124dc565b92915050565b600080600080600060a086880312156125225761252161207e565b5b600086013567ffffffffffffffff8111156125405761253f612083565b5b61254c888289016122fc565b955050602086013567ffffffffffffffff81111561256d5761256c612083565b5b612579888289016122fc565b945050604086013567ffffffffffffffff81111561259a57612599612083565b5b6125a6888289016122fc565b935050606086013567ffffffffffffffff8111156125c7576125c6612083565b5b6125d3888289016122fc565b925050608086013567ffffffffffffffff8111156125f4576125f3612083565b5b612600888289016122fc565b9150509295509295909350565b6126168161232a565b82525050565b6000610120820190508181036000830152612637818c61218c565b9050818103602083015261264b818b61218c565b9050818103604083015261265f818a61218c565b90508181036060830152612673818961218c565b90508181036080830152612687818861218c565b905081810360a083015261269b818761218c565b905081810360c08301526126af818661218c565b90506126be60e083018561260d565b6126cc6101008301846124dc565b9a9950505050505050505050565b60006060820190506126ef600083018661211d565b8181036020830152612701818561218c565b90508181036040830152612715818461218c565b9050949350505050565b6127288161210b565b811461273357600080fd5b50565b6000813590506127458161271f565b92915050565b6000602082840312156127615761276061207e565b5b600061276f84828501612736565b91505092915050565b600060208201905061278d600083018461260d565b92915050565b600080600080600060a086880312156127af576127ae61207e565b5b60006127bd888289016120a9565b955050602086013567ffffffffffffffff8111156127de576127dd612083565b5b6127ea888289016122fc565b945050604086013567ffffffffffffffff81111561280b5761280a612083565b5b612817888289016122fc565b935050606086013567ffffffffffffffff81111561283857612837612083565b5b612844888289016122fc565b92505060806128558882890161234d565b9150509295509295909350565b600060e082019050612877600083018a6124dc565b8181036020830152612889818961218c565b9050818103604083015261289d818861218c565b905081810360608301526128b1818761218c565b905081810360808301526128c5818661218c565b905081810360a08301526128d9818561218c565b90506128e860c08301846124dc565b98975050505050505050565b60008060008060008060c087890312156129115761291061207e565b5b600087013567ffffffffffffffff81111561292f5761292e612083565b5b61293b89828a016122fc565b965050602087013567ffffffffffffffff81111561295c5761295b612083565b5b61296889828a016122fc565b955050604087013567ffffffffffffffff81111561298957612988612083565b5b61299589828a016122fc565b945050606087013567ffffffffffffffff8111156129b6576129b5612083565b5b6129c289828a016122fc565b935050608087013567ffffffffffffffff8111156129e3576129e2612083565b5b6129ef89828a016122fc565b92505060a0612a0089828a016120a9565b9150509295509295509295565b600080600060608486031215612a2657612a2561207e565b5b6000612a3486828701612736565b935050602084013567ffffffffffffffff811115612a5557612a54612083565b5b612a61868287016122fc565b925050604084013567ffffffffffffffff811115612a8257612a81612083565b5b612a8e868287016122fc565b9150509250925092565b600060c0820190508181036000830152612ab2818961218c565b90508181036020830152612ac6818861218c565b90508181036040830152612ada818761218c565b90508181036060830152612aee818661218c565b9050612afd60808301856124dc565b81810360a0830152612b0f818461218c565b9050979650505050505050565b7f4e487b7100000000000000000000000000000000000000000000000000000000600052602260045260246000fd5b60006002820490506001821680612b6357607f821691505b60208210811415612b7757612b76612b1c565b5b50919050565b7f4e487b7100000000000000000000000000000000000000000000000000000000600052601160045260246000fd5b6000612bb782612088565b91507fffffffffffffffffffffffffffffffffffffffffffffffffffffffffffffffff821415612bea57612be9612b7d565b5b600182019050919050565b7f4e487b7100000000000000000000000000000000000000000000000000000000600052603260045260246000fdfea26469706673582212209f59297bda73619123800aedf8ae18abbf1149f599bc863d7c76c6c86b43593764736f6c63430008090033",
  "linkReferences": {},
  "deployedLinkReferences": {}
}