{
  "_format": "hh-sol-artifact-1",
  "contractName": "MainProject",
  "sourceName": "contracts/MainProject.sol",
  "abi": [
    {
      "inputs": [],
      "stateMutability": "nonpayable",
      "type": "constructor"
    },
    {
      "inputs": [
        {
          "internalType": "address",
          "name": "_addr",
          "type": "address"
        },
        {
          "internalType": "string",
          "name": "_name",
          "type": "string"
        },
        {
          "internalType": "string",
          "name": "_company_id",
          "type": "string"
        }
      ],
      "name": "addCompany",
      "outputs": [],
      "stateMutability": "nonpayable",
      "type": "function"
    },
    {
      "inputs": [
        {
          "internalType": "string",
          "name": "_link",
          "type": "string"
        },
        {
          "internalType": "string",
          "name": "_title",
          "type": "string"
        },
        {
          "internalType": "string",
          "name": "_description",
          "type": "string"
        },
        {
          "internalType": "string",
          "name": "_uploaded_on",
          "type": "string"
        },
        {
          "internalType": "string",
          "name": "_id",
          "type": "string"
        }
      ],
      "name": "addFile",
      "outputs": [],
      "stateMutability": "nonpayable",
      "type": "function"
    },
    {
      "inputs": [
        {
          "internalType": "string",
          "name": "_company_id",
          "type": "string"
        },
        {
          "internalType": "string",
          "name": "_title",
          "type": "string"
        },
        {
          "internalType": "string",
          "name": "_description",
          "type": "string"
        },
        {
          "internalType": "string",
          "name": "_requirements",
          "type": "string"
        },
        {
          "internalType": "string",
          "name": "_eligibility",
          "type": "string"
        },
        {
          "internalType": "string",
          "name": "_responsibilities",
          "type": "string"
        },
        {
          "internalType": "string",
          "name": "_link",
          "type": "string"
        },
        {
          "internalType": "bool",
          "name": "_active",
          "type": "bool"
        }
      ],
      "name": "addJob",
      "outputs": [],
      "stateMutability": "nonpayable",
      "type": "function"
    },
    {
      "inputs": [
        {
          "internalType": "string",
          "name": "_comment",
          "type": "string"
        },
        {
          "internalType": "string",
          "name": "_file_link",
          "type": "string"
        },
        {
          "internalType": "string",
          "name": "created_on",
          "type": "string"
        }
      ],
      "name": "addReport",
      "outputs": [],
      "stateMutability": "nonpayable",
      "type": "function"
    },
    {
      "inputs": [
        {
          "internalType": "address",
          "name": "_addr",
          "type": "address"
        },
        {
          "internalType": "string",
          "name": "_name",
          "type": "string"
        },
        {
          "internalType": "string",
          "name": "_user_id",
          "type": "string"
        }
      ],
      "name": "addUser",
      "outputs": [],
      "stateMutability": "nonpayable",
      "type": "function"
    },
    {
      "inputs": [
        {
          "internalType": "uint256",
          "name": "",
          "type": "uint256"
        }
      ],
      "name": "companies",
      "outputs": [
        {
          "internalType": "address",
          "name": "addr",
          "type": "address"
        },
        {
          "internalType": "string",
          "name": "name",
          "type": "string"
        },
        {
          "internalType": "string",
          "name": "company_id",
          "type": "string"
        }
      ],
      "stateMutability": "view",
      "type": "function"
    },
    {
      "inputs": [],
      "name": "companyCount",
      "outputs": [
        {
          "internalType": "uint256",
          "name": "",
          "type": "uint256"
        }
      ],
      "stateMutability": "view",
      "type": "function"
    },
    {
      "inputs": [
        {
          "internalType": "uint256",
          "name": "_index",
          "type": "uint256"
        },
        {
          "internalType": "string",
          "name": "_description",
          "type": "string"
        },
        {
          "internalType": "string",
          "name": "_requirements",
          "type": "string"
        },
        {
          "internalType": "string",
          "name": "_eligibility",
          "type": "string"
        },
        {
          "internalType": "bool",
          "name": "_active",
          "type": "bool"
        }
      ],
      "name": "editJob",
      "outputs": [],
      "stateMutability": "nonpayable",
      "type": "function"
    },
    {
      "inputs": [
        {
          "internalType": "uint256",
          "name": "_index",
          "type": "uint256"
        },
        {
          "internalType": "string",
          "name": "_comment",
          "type": "string"
        },
        {
          "internalType": "string",
          "name": "_file_link",
          "type": "string"
        },
        {
          "internalType": "string",
          "name": "_updated_on",
          "type": "string"
        }
      ],
      "name": "editReport",
      "outputs": [],
      "stateMutability": "nonpayable",
      "type": "function"
    },
    {
      "inputs": [],
      "name": "fileCount",
      "outputs": [
        {
          "internalType": "uint256",
          "name": "",
          "type": "uint256"
        }
      ],
      "stateMutability": "view",
      "type": "function"
    },
    {
      "inputs": [
        {
          "internalType": "uint256",
          "name": "",
          "type": "uint256"
        }
      ],
      "name": "files",
      "outputs": [
        {
          "internalType": "string",
          "name": "link",
          "type": "string"
        },
        {
          "internalType": "string",
          "name": "title",
          "type": "string"
        },
        {
          "internalType": "string",
          "name": "description",
          "type": "string"
        },
        {
          "internalType": "string",
          "name": "uploaded_on",
          "type": "string"
        },
        {
          "internalType": "uint256",
          "name": "index",
          "type": "uint256"
        },
        {
          "internalType": "string",
          "name": "id",
          "type": "string"
        }
      ],
      "stateMutability": "view",
      "type": "function"
    },
    {
      "inputs": [
        {
          "internalType": "address",
          "name": "_addr",
          "type": "address"
        }
      ],
      "name": "isCompany",
      "outputs": [
        {
          "internalType": "bool",
          "name": "",
          "type": "bool"
        }
      ],
      "stateMutability": "view",
      "type": "function"
    },
    {
      "inputs": [
        {
          "internalType": "address",
          "name": "_addr",
          "type": "address"
        }
      ],
      "name": "isUser",
      "outputs": [
        {
          "internalType": "bool",
          "name": "",
          "type": "bool"
        }
      ],
      "stateMutability": "view",
      "type": "function"
    },
    {
      "inputs": [],
      "name": "jobCount",
      "outputs": [
        {
          "internalType": "uint256",
          "name": "",
          "type": "uint256"
        }
      ],
      "stateMutability": "view",
      "type": "function"
    },
    {
      "inputs": [
        {
          "internalType": "uint256",
          "name": "",
          "type": "uint256"
        }
      ],
      "name": "jobs",
      "outputs": [
        {
          "internalType": "string",
          "name": "company_id",
          "type": "string"
        },
        {
          "internalType": "string",
          "name": "title",
          "type": "string"
        },
        {
          "internalType": "string",
          "name": "description",
          "type": "string"
        },
        {
          "internalType": "string",
          "name": "requirements",
          "type": "string"
        },
        {
          "internalType": "string",
          "name": "eligibility",
          "type": "string"
        },
        {
          "internalType": "string",
          "name": "responsibilities",
          "type": "string"
        },
        {
          "internalType": "string",
          "name": "link",
          "type": "string"
        },
        {
          "internalType": "bool",
          "name": "active",
          "type": "bool"
        },
        {
          "internalType": "uint256",
          "name": "index",
          "type": "uint256"
        }
      ],
      "stateMutability": "view",
      "type": "function"
    },
    {
      "inputs": [],
      "name": "ownerCount",
      "outputs": [
        {
          "internalType": "uint256",
          "name": "",
          "type": "uint256"
        }
      ],
      "stateMutability": "view",
      "type": "function"
    },
    {
      "inputs": [
        {
          "internalType": "uint256",
          "name": "",
          "type": "uint256"
        }
      ],
      "name": "owners",
      "outputs": [
        {
          "internalType": "address",
          "name": "addr",
          "type": "address"
        },
        {
          "internalType": "string",
          "name": "name",
          "type": "string"
        }
      ],
      "stateMutability": "view",
      "type": "function"
    },
    {
      "inputs": [],
      "name": "reportCount",
      "outputs": [
        {
          "internalType": "uint256",
          "name": "",
          "type": "uint256"
        }
      ],
      "stateMutability": "view",
      "type": "function"
    },
    {
      "inputs": [
        {
          "internalType": "uint256",
          "name": "",
          "type": "uint256"
        }
      ],
      "name": "reports",
      "outputs": [
        {
          "internalType": "address",
          "name": "user",
          "type": "address"
        },
        {
          "internalType": "string",
          "name": "comment",
          "type": "string"
        },
        {
          "internalType": "string",
          "name": "file_link",
          "type": "string"
        },
        {
          "internalType": "string",
          "name": "created_on",
          "type": "string"
        },
        {
          "internalType": "string",
          "name": "updated_on",
          "type": "string"
        },
        {
          "internalType": "uint256",
          "name": "index",
          "type": "uint256"
        }
      ],
      "stateMutability": "view",
      "type": "function"
    },
    {
      "inputs": [],
      "name": "userCount",
      "outputs": [
        {
          "internalType": "uint256",
          "name": "",
          "type": "uint256"
        }
      ],
      "stateMutability": "view",
      "type": "function"
    },
    {
      "inputs": [
        {
          "internalType": "uint256",
          "name": "",
          "type": "uint256"
        }
      ],
      "name": "users",
      "outputs": [
        {
          "internalType": "address",
          "name": "addr",
          "type": "address"
        },
        {
          "internalType": "string",
          "name": "name",
          "type": "string"
        },
        {
          "internalType": "string",
          "name": "user_id",
          "type": "string"
        }
      ],
      "stateMutability": "view",
      "type": "function"
    }
  ],
  "bytecode": "0x60806040526000805560006002556000600455600060065560006008556000600a553480156200002e57600080fd5b506004600081548092919062000044906200022b565b9190505550600560405180604001604052803373ffffffffffffffffffffffffffffffffffffffff1681526020016040518060400160405280601281526020017f4d61696e2050726f6a6563742041646d696e0000000000000000000000000000815250815250908060018154018082558091505060019003906000526020600020906002020160009091909190915060008201518160000160006101000a81548173ffffffffffffffffffffffffffffffffffffffff021916908373ffffffffffffffffffffffffffffffffffffffff16021790555060208201518160010190805190602001906200013992919062000142565b505050620002de565b8280546200015090620002a8565b90600052602060002090601f016020900481019282620001745760008555620001c0565b82601f106200018f57805160ff1916838001178555620001c0565b82800160010185558215620001c0579182015b82811115620001bf578251825591602001919060010190620001a2565b5b509050620001cf9190620001d3565b5090565b5b80821115620001ee576000816000905550600101620001d4565b5090565b7f4e487b7100000000000000000000000000000000000000000000000000000000600052601160045260246000fd5b6000819050919050565b6000620002388262000221565b91507fffffffffffffffffffffffffffffffffffffffffffffffffffffffffffffffff8214156200026e576200026d620001f2565b5b600182019050919050565b7f4e487b7100000000000000000000000000000000000000000000000000000000600052602260045260246000fd5b60006002820490506001821680620002c157607f821691505b60208210811415620002d857620002d762000279565b5b50919050565b61306880620002ee6000396000f3fe608060405234801561001057600080fd5b50600436106101375760003560e01c806343953519116100b8578063a0406ce21161007c578063a0406ce21461035d578063c942adf71461038d578063d7554a68146103c2578063eadf7c1d146103de578063f3aa6716146103fa578063f4c714b41461041657610137565b806343953519146102cb5780634c5d8a0f146102e95780636bbdb899146103075780637abfe836146103235780638e75dd471461033f57610137565b8063180aedf3116100ff578063180aedf3146101e1578063185c6f84146102195780632813d19d14610237578063365b98b2146102695780634209fff11461029b57610137565b8063025e7c271461013c578063060d754f1461016d57806307973ccf146101895780630a7fac44146101a75780630db02622146101c3575b600080fd5b61015660048036038101906101519190612498565b61044b565b60405161016492919061259f565b60405180910390f35b6101876004803603810190610182919061273c565b610527565b005b6101916106b0565b60405161019e91906128c5565b60405180910390f35b6101c160048036038101906101bc91906128e0565b6106b6565b005b6101cb6107e0565b6040516101d891906128c5565b60405180910390f35b6101fb60048036038101906101f69190612498565b6107e6565b604051610210999897969594939291906129f6565b60405180910390f35b610221610c09565b60405161022e91906128c5565b60405180910390f35b610251600480360381019061024c9190612498565b610c0f565b60405161026093929190612ab4565b60405180910390f35b610283600480360381019061027e9190612498565b610d79565b60405161029293929190612ab4565b60405180910390f35b6102b560048036038101906102b09190612b25565b610ee3565b6040516102c29190612b52565b60405180910390f35b6102d3610f96565b6040516102e091906128c5565b60405180910390f35b6102f1610f9c565b6040516102fe91906128c5565b60405180910390f35b610321600480360381019061031c9190612b6d565b610fa2565b005b61033d60048036038101906103389190612c14565b611104565b005b61034761175e565b60405161035491906128c5565b60405180910390f35b61037760048036038101906103729190612b25565b611764565b6040516103849190612b52565b60405180910390f35b6103a760048036038101906103a29190612498565b611817565b6040516103b996959493929190612ce3565b60405180910390f35b6103dc60048036038101906103d79190612d60565b611aa3565b005b6103f860048036038101906103f39190612d60565b611b9f565b005b610414600480360381019061040f9190612deb565b611c9b565b005b610430600480360381019061042b9190612498565b612081565b60405161044296959493929190612ea6565b60405180910390f35b6005818154811061045b57600080fd5b90600052602060002090600202016000915090508060000160009054906101000a900473ffffffffffffffffffffffffffffffffffffffff16908060010180546104a490612f59565b80601f01602080910402602001604051908101604052809291908181526020018280546104d090612f59565b801561051d5780601f106104f25761010080835404028352916020019161051d565b820191906000526020600020905b81548152906001019060200180831161050057829003601f168201915b5050505050905082565b60036040518061012001604052808a81526020018981526020018881526020018781526020018681526020018581526020018481526020018315158152602001600254815250908060018154018082558091505060019003906000526020600020906009020160009091909190915060008201518160000190805190602001906105b2929190612375565b5060208201518160010190805190602001906105cf929190612375565b5060408201518160020190805190602001906105ec929190612375565b506060820151816003019080519060200190610609929190612375565b506080820151816004019080519060200190610626929190612375565b5060a0820151816005019080519060200190610643929190612375565b5060c0820151816006019080519060200190610660929190612375565b5060e08201518160070160006101000a81548160ff02191690831515021790555061010082015181600801555050600260008154809291906106a190612fba565b91905055505050505050505050565b60065481565b6106be6123fb565b858160000181905250848160200181905250838160400181905250828160600181905250600a54816080018181525050818160a00181905250600b819080600181540180825580915050600190039060005260206000209060060201600090919091909150600082015181600001908051906020019061073f929190612375565b50602082015181600101908051906020019061075c929190612375565b506040820151816002019080519060200190610779929190612375565b506060820151816003019080519060200190610796929190612375565b506080820151816004015560a08201518160050190805190602001906107bd929190612375565b505050600a60008154809291906107d390612fba565b9190505550505050505050565b60045481565b600381815481106107f657600080fd5b906000526020600020906009020160009150905080600001805461081990612f59565b80601f016020809104026020016040519081016040528092919081815260200182805461084590612f59565b80156108925780601f1061086757610100808354040283529160200191610892565b820191906000526020600020905b81548152906001019060200180831161087557829003601f168201915b5050505050908060010180546108a790612f59565b80601f01602080910402602001604051908101604052809291908181526020018280546108d390612f59565b80156109205780601f106108f557610100808354040283529160200191610920565b820191906000526020600020905b81548152906001019060200180831161090357829003601f168201915b50505050509080600201805461093590612f59565b80601f016020809104026020016040519081016040528092919081815260200182805461096190612f59565b80156109ae5780601f10610983576101008083540402835291602001916109ae565b820191906000526020600020905b81548152906001019060200180831161099157829003601f168201915b5050505050908060030180546109c390612f59565b80601f01602080910402602001604051908101604052809291908181526020018280546109ef90612f59565b8015610a3c5780601f10610a1157610100808354040283529160200191610a3c565b820191906000526020600020905b815481529060010190602001808311610a1f57829003601f168201915b505050505090806004018054610a5190612f59565b80601f0160208091040260200160405190810160405280929190818152602001828054610a7d90612f59565b8015610aca5780601f10610a9f57610100808354040283529160200191610aca565b820191906000526020600020905b815481529060010190602001808311610aad57829003601f168201915b505050505090806005018054610adf90612f59565b80601f0160208091040260200160405190810160405280929190818152602001828054610b0b90612f59565b8015610b585780601f10610b2d57610100808354040283529160200191610b58565b820191906000526020600020905b815481529060010190602001808311610b3b57829003601f168201915b505050505090806006018054610b6d90612f59565b80601f0160208091040260200160405190810160405280929190818152602001828054610b9990612f59565b8015610be65780601f10610bbb57610100808354040283529160200191610be6565b820191906000526020600020905b815481529060010190602001808311610bc957829003601f168201915b5050505050908060070160009054906101000a900460ff16908060080154905089565b60005481565b60098181548110610c1f57600080fd5b90600052602060002090600302016000915090508060000160009054906101000a900473ffffffffffffffffffffffffffffffffffffffff1690806001018054610c6890612f59565b80601f0160208091040260200160405190810160405280929190818152602001828054610c9490612f59565b8015610ce15780601f10610cb657610100808354040283529160200191610ce1565b820191906000526020600020905b815481529060010190602001808311610cc457829003601f168201915b505050505090806002018054610cf690612f59565b80601f0160208091040260200160405190810160405280929190818152602001828054610d2290612f59565b8015610d6f5780601f10610d4457610100808354040283529160200191610d6f565b820191906000526020600020905b815481529060010190602001808311610d5257829003601f168201915b5050505050905083565b60078181548110610d8957600080fd5b90600052602060002090600302016000915090508060000160009054906101000a900473ffffffffffffffffffffffffffffffffffffffff1690806001018054610dd290612f59565b80601f0160208091040260200160405190810160405280929190818152602001828054610dfe90612f59565b8015610e4b5780601f10610e2057610100808354040283529160200191610e4b565b820191906000526020600020905b815481529060010190602001808311610e2e57829003601f168201915b505050505090806002018054610e6090612f59565b80601f0160208091040260200160405190810160405280929190818152602001828054610e8c90612f59565b8015610ed95780601f10610eae57610100808354040283529160200191610ed9565b820191906000526020600020905b815481529060010190602001808311610ebc57829003601f168201915b5050505050905083565b600080600090505b600654811015610f8b5760078181548110610f0957610f08613003565b5b906000526020600020906003020160000160009054906101000a900473ffffffffffffffffffffffffffffffffffffffff1673ffffffffffffffffffffffffffffffffffffffff168373ffffffffffffffffffffffffffffffffffffffff161415610f78576001915050610f91565b8080610f8390612fba565b915050610eeb565b50600090505b919050565b600a5481565b60025481565b60016040518060c001604052803373ffffffffffffffffffffffffffffffffffffffff168152602001858152602001848152602001838152602001604051806020016040528060008152508152602001600054815250908060018154018082558091505060019003906000526020600020906006020160009091909190915060008201518160000160006101000a81548173ffffffffffffffffffffffffffffffffffffffff021916908373ffffffffffffffffffffffffffffffffffffffff1602179055506020820151816001019080519060200190611084929190612375565b5060408201518160020190805190602001906110a1929190612375565b5060608201518160030190805190602001906110be929190612375565b5060808201518160040190805190602001906110db929190612375565b5060a0820151816005015550506000808154809291906110fa90612fba565b9190505550505050565b60006003868154811061111a57611119613003565b5b90600052602060002090600902016040518061012001604052908160008201805461114490612f59565b80601f016020809104026020016040519081016040528092919081815260200182805461117090612f59565b80156111bd5780601f10611192576101008083540402835291602001916111bd565b820191906000526020600020905b8154815290600101906020018083116111a057829003601f168201915b505050505081526020016001820180546111d690612f59565b80601f016020809104026020016040519081016040528092919081815260200182805461120290612f59565b801561124f5780601f106112245761010080835404028352916020019161124f565b820191906000526020600020905b81548152906001019060200180831161123257829003601f168201915b5050505050815260200160028201805461126890612f59565b80601f016020809104026020016040519081016040528092919081815260200182805461129490612f59565b80156112e15780601f106112b6576101008083540402835291602001916112e1565b820191906000526020600020905b8154815290600101906020018083116112c457829003601f168201915b505050505081526020016003820180546112fa90612f59565b80601f016020809104026020016040519081016040528092919081815260200182805461132690612f59565b80156113735780601f1061134857610100808354040283529160200191611373565b820191906000526020600020905b81548152906001019060200180831161135657829003601f168201915b5050505050815260200160048201805461138c90612f59565b80601f01602080910402602001604051908101604052809291908181526020018280546113b890612f59565b80156114055780601f106113da57610100808354040283529160200191611405565b820191906000526020600020905b8154815290600101906020018083116113e857829003601f168201915b5050505050815260200160058201805461141e90612f59565b80601f016020809104026020016040519081016040528092919081815260200182805461144a90612f59565b80156114975780601f1061146c57610100808354040283529160200191611497565b820191906000526020600020905b81548152906001019060200180831161147a57829003601f168201915b505050505081526020016006820180546114b090612f59565b80601f01602080910402602001604051908101604052809291908181526020018280546114dc90612f59565b80156115295780601f106114fe57610100808354040283529160200191611529565b820191906000526020600020905b81548152906001019060200180831161150c57829003601f168201915b505050505081526020016007820160009054906101000a900460ff161515151581526020016008820154815250509050848160400181905250838160600181905250828160800181905250818160e00190151590811515815250506003868154811061159857611597613003565b5b906000526020600020906009020160010180546115b490612f59565b80601f01602080910402602001604051908101604052809291908181526020018280546115e090612f59565b801561162d5780601f106116025761010080835404028352916020019161162d565b820191906000526020600020905b81548152906001019060200180831161161057829003601f168201915b50505050508160200181905250806003878154811061164f5761164e613003565b5b90600052602060002090600902016000820151816000019080519060200190611679929190612375565b506020820151816001019080519060200190611696929190612375565b5060408201518160020190805190602001906116b3929190612375565b5060608201518160030190805190602001906116d0929190612375565b5060808201518160040190805190602001906116ed929190612375565b5060a082015181600501908051906020019061170a929190612375565b5060c0820151816006019080519060200190611727929190612375565b5060e08201518160070160006101000a81548160ff0219169083151502179055506101008201518160080155905050505050505050565b60085481565b600080600090505b60085481101561180c576009818154811061178a57611789613003565b5b906000526020600020906003020160000160009054906101000a900473ffffffffffffffffffffffffffffffffffffffff1673ffffffffffffffffffffffffffffffffffffffff168373ffffffffffffffffffffffffffffffffffffffff1614156117f9576001915050611812565b808061180490612fba565b91505061176c565b50600090505b919050565b6001818154811061182757600080fd5b90600052602060002090600602016000915090508060000160009054906101000a900473ffffffffffffffffffffffffffffffffffffffff169080600101805461187090612f59565b80601f016020809104026020016040519081016040528092919081815260200182805461189c90612f59565b80156118e95780601f106118be576101008083540402835291602001916118e9565b820191906000526020600020905b8154815290600101906020018083116118cc57829003601f168201915b5050505050908060020180546118fe90612f59565b80601f016020809104026020016040519081016040528092919081815260200182805461192a90612f59565b80156119775780601f1061194c57610100808354040283529160200191611977565b820191906000526020600020905b81548152906001019060200180831161195a57829003601f168201915b50505050509080600301805461198c90612f59565b80601f01602080910402602001604051908101604052809291908181526020018280546119b890612f59565b8015611a055780601f106119da57610100808354040283529160200191611a05565b820191906000526020600020905b8154815290600101906020018083116119e857829003601f168201915b505050505090806004018054611a1a90612f59565b80601f0160208091040260200160405190810160405280929190818152602001828054611a4690612f59565b8015611a935780601f10611a6857610100808354040283529160200191611a93565b820191906000526020600020905b815481529060010190602001808311611a7657829003601f168201915b5050505050908060050154905086565b600760405180606001604052808573ffffffffffffffffffffffffffffffffffffffff16815260200184815260200183815250908060018154018082558091505060019003906000526020600020906003020160009091909190915060008201518160000160006101000a81548173ffffffffffffffffffffffffffffffffffffffff021916908373ffffffffffffffffffffffffffffffffffffffff1602179055506020820151816001019080519060200190611b62929190612375565b506040820151816002019080519060200190611b7f929190612375565b50505060066000815480929190611b9590612fba565b9190505550505050565b600960405180606001604052808573ffffffffffffffffffffffffffffffffffffffff16815260200184815260200183815250908060018154018082558091505060019003906000526020600020906003020160009091909190915060008201518160000160006101000a81548173ffffffffffffffffffffffffffffffffffffffff021916908373ffffffffffffffffffffffffffffffffffffffff1602179055506020820151816001019080519060200190611c5e929190612375565b506040820151816002019080519060200190611c7b929190612375565b50505060066000815480929190611c9190612fba565b9190505550505050565b600060018581548110611cb157611cb0613003565b5b90600052602060002090600602016040518060c00160405290816000820160009054906101000a900473ffffffffffffffffffffffffffffffffffffffff1673ffffffffffffffffffffffffffffffffffffffff1673ffffffffffffffffffffffffffffffffffffffff168152602001600182018054611d3090612f59565b80601f0160208091040260200160405190810160405280929190818152602001828054611d5c90612f59565b8015611da95780601f10611d7e57610100808354040283529160200191611da9565b820191906000526020600020905b815481529060010190602001808311611d8c57829003601f168201915b50505050508152602001600282018054611dc290612f59565b80601f0160208091040260200160405190810160405280929190818152602001828054611dee90612f59565b8015611e3b5780601f10611e1057610100808354040283529160200191611e3b565b820191906000526020600020905b815481529060010190602001808311611e1e57829003601f168201915b50505050508152602001600382018054611e5490612f59565b80601f0160208091040260200160405190810160405280929190818152602001828054611e8090612f59565b8015611ecd5780601f10611ea257610100808354040283529160200191611ecd565b820191906000526020600020905b815481529060010190602001808311611eb057829003601f168201915b50505050508152602001600482018054611ee690612f59565b80601f0160208091040260200160405190810160405280929190818152602001828054611f1290612f59565b8015611f5f5780601f10611f3457610100808354040283529160200191611f5f565b820191906000526020600020905b815481529060010190602001808311611f4257829003601f168201915b5050505050815260200160058201548152505090508381602001819052508281604001819052508181608001819052508060018681548110611fa457611fa3613003565b5b906000526020600020906006020160008201518160000160006101000a81548173ffffffffffffffffffffffffffffffffffffffff021916908373ffffffffffffffffffffffffffffffffffffffff1602179055506020820151816001019080519060200190612015929190612375565b506040820151816002019080519060200190612032929190612375565b50606082015181600301908051906020019061204f929190612375565b50608082015181600401908051906020019061206c929190612375565b5060a082015181600501559050505050505050565b600b818154811061209157600080fd5b90600052602060002090600602016000915090508060000180546120b490612f59565b80601f01602080910402602001604051908101604052809291908181526020018280546120e090612f59565b801561212d5780601f106121025761010080835404028352916020019161212d565b820191906000526020600020905b81548152906001019060200180831161211057829003601f168201915b50505050509080600101805461214290612f59565b80601f016020809104026020016040519081016040528092919081815260200182805461216e90612f59565b80156121bb5780601f10612190576101008083540402835291602001916121bb565b820191906000526020600020905b81548152906001019060200180831161219e57829003601f168201915b5050505050908060020180546121d090612f59565b80601f01602080910402602001604051908101604052809291908181526020018280546121fc90612f59565b80156122495780601f1061221e57610100808354040283529160200191612249565b820191906000526020600020905b81548152906001019060200180831161222c57829003601f168201915b50505050509080600301805461225e90612f59565b80601f016020809104026020016040519081016040528092919081815260200182805461228a90612f59565b80156122d75780601f106122ac576101008083540402835291602001916122d7565b820191906000526020600020905b8154815290600101906020018083116122ba57829003601f168201915b5050505050908060040154908060050180546122f290612f59565b80601f016020809104026020016040519081016040528092919081815260200182805461231e90612f59565b801561236b5780601f106123405761010080835404028352916020019161236b565b820191906000526020600020905b81548152906001019060200180831161234e57829003601f168201915b5050505050905086565b82805461238190612f59565b90600052602060002090601f0160209004810192826123a357600085556123ea565b82601f106123bc57805160ff19168380011785556123ea565b828001600101855582156123ea579182015b828111156123e95782518255916020019190600101906123ce565b5b5090506123f79190612431565b5090565b6040518060c001604052806060815260200160608152602001606081526020016060815260200160008152602001606081525090565b5b8082111561244a576000816000905550600101612432565b5090565b6000604051905090565b600080fd5b600080fd5b6000819050919050565b61247581612462565b811461248057600080fd5b50565b6000813590506124928161246c565b92915050565b6000602082840312156124ae576124ad612458565b5b60006124bc84828501612483565b91505092915050565b600073ffffffffffffffffffffffffffffffffffffffff82169050919050565b60006124f0826124c5565b9050919050565b612500816124e5565b82525050565b600081519050919050565b600082825260208201905092915050565b60005b83811015612540578082015181840152602081019050612525565b8381111561254f576000848401525b50505050565b6000601f19601f8301169050919050565b600061257182612506565b61257b8185612511565b935061258b818560208601612522565b61259481612555565b840191505092915050565b60006040820190506125b460008301856124f7565b81810360208301526125c68184612566565b90509392505050565b600080fd5b600080fd5b7f4e487b7100000000000000000000000000000000000000000000000000000000600052604160045260246000fd5b61261182612555565b810181811067ffffffffffffffff821117156126305761262f6125d9565b5b80604052505050565b600061264361244e565b905061264f8282612608565b919050565b600067ffffffffffffffff82111561266f5761266e6125d9565b5b61267882612555565b9050602081019050919050565b82818337600083830152505050565b60006126a76126a284612654565b612639565b9050828152602081018484840111156126c3576126c26125d4565b5b6126ce848285612685565b509392505050565b600082601f8301126126eb576126ea6125cf565b5b81356126fb848260208601612694565b91505092915050565b60008115159050919050565b61271981612704565b811461272457600080fd5b50565b60008135905061273681612710565b92915050565b600080600080600080600080610100898b03121561275d5761275c612458565b5b600089013567ffffffffffffffff81111561277b5761277a61245d565b5b6127878b828c016126d6565b985050602089013567ffffffffffffffff8111156127a8576127a761245d565b5b6127b48b828c016126d6565b975050604089013567ffffffffffffffff8111156127d5576127d461245d565b5b6127e18b828c016126d6565b965050606089013567ffffffffffffffff8111156128025761280161245d565b5b61280e8b828c016126d6565b955050608089013567ffffffffffffffff81111561282f5761282e61245d565b5b61283b8b828c016126d6565b94505060a089013567ffffffffffffffff81111561285c5761285b61245d565b5b6128688b828c016126d6565b93505060c089013567ffffffffffffffff8111156128895761288861245d565b5b6128958b828c016126d6565b92505060e06128a68b828c01612727565b9150509295985092959890939650565b6128bf81612462565b82525050565b60006020820190506128da60008301846128b6565b92915050565b600080600080600060a086880312156128fc576128fb612458565b5b600086013567ffffffffffffffff81111561291a5761291961245d565b5b612926888289016126d6565b955050602086013567ffffffffffffffff8111156129475761294661245d565b5b612953888289016126d6565b945050604086013567ffffffffffffffff8111156129745761297361245d565b5b612980888289016126d6565b935050606086013567ffffffffffffffff8111156129a1576129a061245d565b5b6129ad888289016126d6565b925050608086013567ffffffffffffffff8111156129ce576129cd61245d565b5b6129da888289016126d6565b9150509295509295909350565b6129f081612704565b82525050565b6000610120820190508181036000830152612a11818c612566565b90508181036020830152612a25818b612566565b90508181036040830152612a39818a612566565b90508181036060830152612a4d8189612566565b90508181036080830152612a618188612566565b905081810360a0830152612a758187612566565b905081810360c0830152612a898186612566565b9050612a9860e08301856129e7565b612aa66101008301846128b6565b9a9950505050505050505050565b6000606082019050612ac960008301866124f7565b8181036020830152612adb8185612566565b90508181036040830152612aef8184612566565b9050949350505050565b612b02816124e5565b8114612b0d57600080fd5b50565b600081359050612b1f81612af9565b92915050565b600060208284031215612b3b57612b3a612458565b5b6000612b4984828501612b10565b91505092915050565b6000602082019050612b6760008301846129e7565b92915050565b600080600060608486031215612b8657612b85612458565b5b600084013567ffffffffffffffff811115612ba457612ba361245d565b5b612bb0868287016126d6565b935050602084013567ffffffffffffffff811115612bd157612bd061245d565b5b612bdd868287016126d6565b925050604084013567ffffffffffffffff811115612bfe57612bfd61245d565b5b612c0a868287016126d6565b9150509250925092565b600080600080600060a08688031215612c3057612c2f612458565b5b6000612c3e88828901612483565b955050602086013567ffffffffffffffff811115612c5f57612c5e61245d565b5b612c6b888289016126d6565b945050604086013567ffffffffffffffff811115612c8c57612c8b61245d565b5b612c98888289016126d6565b935050606086013567ffffffffffffffff811115612cb957612cb861245d565b5b612cc5888289016126d6565b9250506080612cd688828901612727565b9150509295509295909350565b600060c082019050612cf860008301896124f7565b8181036020830152612d0a8188612566565b90508181036040830152612d1e8187612566565b90508181036060830152612d328186612566565b90508181036080830152612d468185612566565b9050612d5560a08301846128b6565b979650505050505050565b600080600060608486031215612d7957612d78612458565b5b6000612d8786828701612b10565b935050602084013567ffffffffffffffff811115612da857612da761245d565b5b612db4868287016126d6565b925050604084013567ffffffffffffffff811115612dd557612dd461245d565b5b612de1868287016126d6565b9150509250925092565b60008060008060808587031215612e0557612e04612458565b5b6000612e1387828801612483565b945050602085013567ffffffffffffffff811115612e3457612e3361245d565b5b612e40878288016126d6565b935050604085013567ffffffffffffffff811115612e6157612e6061245d565b5b612e6d878288016126d6565b925050606085013567ffffffffffffffff811115612e8e57612e8d61245d565b5b612e9a878288016126d6565b91505092959194509250565b600060c0820190508181036000830152612ec08189612566565b90508181036020830152612ed48188612566565b90508181036040830152612ee88187612566565b90508181036060830152612efc8186612566565b9050612f0b60808301856128b6565b81810360a0830152612f1d8184612566565b9050979650505050505050565b7f4e487b7100000000000000000000000000000000000000000000000000000000600052602260045260246000fd5b60006002820490506001821680612f7157607f821691505b60208210811415612f8557612f84612f2a565b5b50919050565b7f4e487b7100000000000000000000000000000000000000000000000000000000600052601160045260246000fd5b6000612fc582612462565b91507fffffffffffffffffffffffffffffffffffffffffffffffffffffffffffffffff821415612ff857612ff7612f8b565b5b600182019050919050565b7f4e487b7100000000000000000000000000000000000000000000000000000000600052603260045260246000fdfea2646970667358221220a12e4757f51bf0bec0b0351f784c5c4f10511612bb8d4c32e33f1fc37c2fc05764736f6c63430008090033",
  "linkReferences": {},
  "deployedLinkReferences": {}
}