{
  "_format": "hh-sol-artifact-1",
  "contractName": "MainProject",
  "sourceName": "contracts/MainProject.sol",
  "abi": [
    {
      "inputs": [],
      "stateMutability": "nonpayable",
      "type": "constructor"
    },
    {
      "inputs": [
        {
          "internalType": "address",
          "name": "_addr",
          "type": "address"
        },
        {
          "internalType": "string",
          "name": "_name",
          "type": "string"
        },
        {
          "internalType": "string",
          "name": "_company_id",
          "type": "string"
        }
      ],
      "name": "addCompany",
      "outputs": [],
      "stateMutability": "nonpayable",
      "type": "function"
    },
    {
      "inputs": [
        {
          "internalType": "string",
          "name": "_link",
          "type": "string"
        },
        {
          "internalType": "string",
          "name": "_title",
          "type": "string"
        },
        {
          "internalType": "string",
          "name": "_description",
          "type": "string"
        },
        {
          "internalType": "string",
          "name": "_uploaded_on",
          "type": "string"
        },
        {
          "internalType": "string",
          "name": "_id",
          "type": "string"
        }
      ],
      "name": "addFile",
      "outputs": [],
      "stateMutability": "nonpayable",
      "type": "function"
    },
    {
      "inputs": [
        {
          "internalType": "string",
          "name": "_company_id",
          "type": "string"
        },
        {
          "internalType": "string",
          "name": "_title",
          "type": "string"
        },
        {
          "internalType": "string",
          "name": "_description",
          "type": "string"
        },
        {
          "internalType": "string",
          "name": "_requirements",
          "type": "string"
        },
        {
          "internalType": "string",
          "name": "_eligibility",
          "type": "string"
        },
        {
          "internalType": "string",
          "name": "_responsibilities",
          "type": "string"
        },
        {
          "internalType": "string",
          "name": "_link",
          "type": "string"
        },
        {
          "internalType": "bool",
          "name": "_active",
          "type": "bool"
        }
      ],
      "name": "addJob",
      "outputs": [],
      "stateMutability": "nonpayable",
      "type": "function"
    },
    {
      "inputs": [
        {
          "internalType": "string",
          "name": "_comment",
          "type": "string"
        },
        {
          "internalType": "string",
          "name": "_file_link",
          "type": "string"
        },
        {
          "internalType": "string",
          "name": "created_on",
          "type": "string"
        },
        {
          "internalType": "string",
          "name": "_creator_id",
          "type": "string"
        },
        {
          "internalType": "string",
          "name": "_creatorType",
          "type": "string"
        },
        {
          "internalType": "uint256",
          "name": "_job_id",
          "type": "uint256"
        }
      ],
      "name": "addReport",
      "outputs": [],
      "stateMutability": "nonpayable",
      "type": "function"
    },
    {
      "inputs": [
        {
          "internalType": "address",
          "name": "_addr",
          "type": "address"
        },
        {
          "internalType": "string",
          "name": "_name",
          "type": "string"
        },
        {
          "internalType": "string",
          "name": "_user_id",
          "type": "string"
        }
      ],
      "name": "addUser",
      "outputs": [],
      "stateMutability": "nonpayable",
      "type": "function"
    },
    {
      "inputs": [
        {
          "internalType": "uint256",
          "name": "",
          "type": "uint256"
        }
      ],
      "name": "companies",
      "outputs": [
        {
          "internalType": "address",
          "name": "addr",
          "type": "address"
        },
        {
          "internalType": "string",
          "name": "name",
          "type": "string"
        },
        {
          "internalType": "string",
          "name": "company_id",
          "type": "string"
        }
      ],
      "stateMutability": "view",
      "type": "function"
    },
    {
      "inputs": [],
      "name": "companyCount",
      "outputs": [
        {
          "internalType": "uint256",
          "name": "",
          "type": "uint256"
        }
      ],
      "stateMutability": "view",
      "type": "function"
    },
    {
      "inputs": [
        {
          "internalType": "uint256",
          "name": "_index",
          "type": "uint256"
        },
        {
          "internalType": "string",
          "name": "_description",
          "type": "string"
        },
        {
          "internalType": "string",
          "name": "_requirements",
          "type": "string"
        },
        {
          "internalType": "string",
          "name": "_eligibility",
          "type": "string"
        },
        {
          "internalType": "bool",
          "name": "_active",
          "type": "bool"
        }
      ],
      "name": "editJob",
      "outputs": [],
      "stateMutability": "nonpayable",
      "type": "function"
    },
    {
      "inputs": [],
      "name": "fileCount",
      "outputs": [
        {
          "internalType": "uint256",
          "name": "",
          "type": "uint256"
        }
      ],
      "stateMutability": "view",
      "type": "function"
    },
    {
      "inputs": [
        {
          "internalType": "uint256",
          "name": "",
          "type": "uint256"
        }
      ],
      "name": "files",
      "outputs": [
        {
          "internalType": "string",
          "name": "link",
          "type": "string"
        },
        {
          "internalType": "string",
          "name": "title",
          "type": "string"
        },
        {
          "internalType": "string",
          "name": "description",
          "type": "string"
        },
        {
          "internalType": "string",
          "name": "uploaded_on",
          "type": "string"
        },
        {
          "internalType": "uint256",
          "name": "index",
          "type": "uint256"
        },
        {
          "internalType": "string",
          "name": "id",
          "type": "string"
        }
      ],
      "stateMutability": "view",
      "type": "function"
    },
    {
      "inputs": [
        {
          "internalType": "address",
          "name": "_addr",
          "type": "address"
        }
      ],
      "name": "isCompany",
      "outputs": [
        {
          "internalType": "bool",
          "name": "",
          "type": "bool"
        }
      ],
      "stateMutability": "view",
      "type": "function"
    },
    {
      "inputs": [
        {
          "internalType": "address",
          "name": "_addr",
          "type": "address"
        }
      ],
      "name": "isUser",
      "outputs": [
        {
          "internalType": "bool",
          "name": "",
          "type": "bool"
        }
      ],
      "stateMutability": "view",
      "type": "function"
    },
    {
      "inputs": [],
      "name": "jobCount",
      "outputs": [
        {
          "internalType": "uint256",
          "name": "",
          "type": "uint256"
        }
      ],
      "stateMutability": "view",
      "type": "function"
    },
    {
      "inputs": [
        {
          "internalType": "uint256",
          "name": "",
          "type": "uint256"
        }
      ],
      "name": "jobs",
      "outputs": [
        {
          "internalType": "string",
          "name": "company_id",
          "type": "string"
        },
        {
          "internalType": "string",
          "name": "title",
          "type": "string"
        },
        {
          "internalType": "string",
          "name": "description",
          "type": "string"
        },
        {
          "internalType": "string",
          "name": "requirements",
          "type": "string"
        },
        {
          "internalType": "string",
          "name": "eligibility",
          "type": "string"
        },
        {
          "internalType": "string",
          "name": "responsibilities",
          "type": "string"
        },
        {
          "internalType": "string",
          "name": "link",
          "type": "string"
        },
        {
          "internalType": "bool",
          "name": "active",
          "type": "bool"
        },
        {
          "internalType": "uint256",
          "name": "index",
          "type": "uint256"
        }
      ],
      "stateMutability": "view",
      "type": "function"
    },
    {
      "inputs": [],
      "name": "ownerCount",
      "outputs": [
        {
          "internalType": "uint256",
          "name": "",
          "type": "uint256"
        }
      ],
      "stateMutability": "view",
      "type": "function"
    },
    {
      "inputs": [
        {
          "internalType": "uint256",
          "name": "",
          "type": "uint256"
        }
      ],
      "name": "owners",
      "outputs": [
        {
          "internalType": "address",
          "name": "addr",
          "type": "address"
        },
        {
          "internalType": "string",
          "name": "name",
          "type": "string"
        }
      ],
      "stateMutability": "view",
      "type": "function"
    },
    {
      "inputs": [],
      "name": "reportCount",
      "outputs": [
        {
          "internalType": "uint256",
          "name": "",
          "type": "uint256"
        }
      ],
      "stateMutability": "view",
      "type": "function"
    },
    {
      "inputs": [
        {
          "internalType": "uint256",
          "name": "",
          "type": "uint256"
        }
      ],
      "name": "reports",
      "outputs": [
        {
          "internalType": "uint256",
          "name": "job_id",
          "type": "uint256"
        },
        {
          "internalType": "string",
          "name": "creator_id",
          "type": "string"
        },
        {
          "internalType": "string",
          "name": "creator_type",
          "type": "string"
        },
        {
          "internalType": "string",
          "name": "comment",
          "type": "string"
        },
        {
          "internalType": "string",
          "name": "file_link",
          "type": "string"
        },
        {
          "internalType": "string",
          "name": "created_on",
          "type": "string"
        },
        {
          "internalType": "string",
          "name": "updated_on",
          "type": "string"
        },
        {
          "internalType": "uint256",
          "name": "index",
          "type": "uint256"
        }
      ],
      "stateMutability": "view",
      "type": "function"
    },
    {
      "inputs": [],
      "name": "userCount",
      "outputs": [
        {
          "internalType": "uint256",
          "name": "",
          "type": "uint256"
        }
      ],
      "stateMutability": "view",
      "type": "function"
    },
    {
      "inputs": [
        {
          "internalType": "uint256",
          "name": "",
          "type": "uint256"
        }
      ],
      "name": "users",
      "outputs": [
        {
          "internalType": "address",
          "name": "addr",
          "type": "address"
        },
        {
          "internalType": "string",
          "name": "name",
          "type": "string"
        },
        {
          "internalType": "string",
          "name": "user_id",
          "type": "string"
        }
      ],
      "stateMutability": "view",
      "type": "function"
    }
  ],
  "bytecode": "0x60806040526000805560006002556000600455600060065560006008556000600a553480156200002e57600080fd5b506004600081548092919062000044906200022b565b9190505550600560405180604001604052803373ffffffffffffffffffffffffffffffffffffffff1681526020016040518060400160405280601281526020017f4d61696e2050726f6a6563742041646d696e0000000000000000000000000000815250815250908060018154018082558091505060019003906000526020600020906002020160009091909190915060008201518160000160006101000a81548173ffffffffffffffffffffffffffffffffffffffff021916908373ffffffffffffffffffffffffffffffffffffffff16021790555060208201518160010190805190602001906200013992919062000142565b505050620002de565b8280546200015090620002a8565b90600052602060002090601f016020900481019282620001745760008555620001c0565b82601f106200018f57805160ff1916838001178555620001c0565b82800160010185558215620001c0579182015b82811115620001bf578251825591602001919060010190620001a2565b5b509050620001cf9190620001d3565b5090565b5b80821115620001ee576000816000905550600101620001d4565b5090565b7f4e487b7100000000000000000000000000000000000000000000000000000000600052601160045260246000fd5b6000819050919050565b6000620002388262000221565b91507fffffffffffffffffffffffffffffffffffffffffffffffffffffffffffffffff8214156200026e576200026d620001f2565b5b600182019050919050565b7f4e487b7100000000000000000000000000000000000000000000000000000000600052602260045260246000fd5b60006002820490506001821680620002c157607f821691505b60208210811415620002d857620002d762000279565b5b50919050565b612d3280620002ee6000396000f3fe608060405234801561001057600080fd5b506004361061012c5760003560e01c806343953519116100ad578063c942adf711610071578063c942adf714610366578063d010aa1d1461039d578063d7554a68146103b9578063eadf7c1d146103d5578063f4c714b4146103f15761012c565b806343953519146102c05780634c5d8a0f146102de5780637abfe836146102fc5780638e75dd4714610318578063a0406ce2146103365761012c565b8063180aedf3116100f4578063180aedf3146101d6578063185c6f841461020e5780632813d19d1461022c578063365b98b21461025e5780634209fff1146102905761012c565b8063025e7c2714610131578063060d754f1461016257806307973ccf1461017e5780630a7fac441461019c5780630db02622146101b8575b600080fd5b61014b60048036038101906101469190612180565b610426565b604051610159929190612287565b60405180910390f35b61017c60048036038101906101779190612424565b610502565b005b61018661068b565b60405161019391906125ad565b60405180910390f35b6101b660048036038101906101b191906125c8565b610691565b005b6101c06107bb565b6040516101cd91906125ad565b60405180910390f35b6101f060048036038101906101eb9190612180565b6107c1565b604051610205999897969594939291906126de565b60405180910390f35b610216610be4565b60405161022391906125ad565b60405180910390f35b61024660048036038101906102419190612180565b610bea565b6040516102559392919061279c565b60405180910390f35b61027860048036038101906102739190612180565b610d54565b6040516102879392919061279c565b60405180910390f35b6102aa60048036038101906102a5919061280d565b610ebe565b6040516102b7919061283a565b60405180910390f35b6102c8610f71565b6040516102d591906125ad565b60405180910390f35b6102e6610f77565b6040516102f391906125ad565b60405180910390f35b61031660048036038101906103119190612855565b610f7d565b005b6103206115d7565b60405161032d91906125ad565b60405180910390f35b610350600480360381019061034b919061280d565b6115dd565b60405161035d919061283a565b60405180910390f35b610380600480360381019061037b9190612180565b611690565b604051610394989796959493929190612924565b60405180910390f35b6103b760048036038101906103b291906129cc565b611a18565b005b6103d360048036038101906103ce9190612ae5565b611b71565b005b6103ef60048036038101906103ea9190612ae5565b611c6d565b005b61040b60048036038101906104069190612180565b611d69565b60405161041d96959493929190612b70565b60405180910390f35b6005818154811061043657600080fd5b90600052602060002090600202016000915090508060000160009054906101000a900473ffffffffffffffffffffffffffffffffffffffff169080600101805461047f90612c23565b80601f01602080910402602001604051908101604052809291908181526020018280546104ab90612c23565b80156104f85780601f106104cd576101008083540402835291602001916104f8565b820191906000526020600020905b8154815290600101906020018083116104db57829003601f168201915b5050505050905082565b60036040518061012001604052808a815260200189815260200188815260200187815260200186815260200185815260200184815260200183151581526020016002548152509080600181540180825580915050600190039060005260206000209060090201600090919091909150600082015181600001908051906020019061058d92919061205d565b5060208201518160010190805190602001906105aa92919061205d565b5060408201518160020190805190602001906105c792919061205d565b5060608201518160030190805190602001906105e492919061205d565b50608082015181600401908051906020019061060192919061205d565b5060a082015181600501908051906020019061061e92919061205d565b5060c082015181600601908051906020019061063b92919061205d565b5060e08201518160070160006101000a81548160ff021916908315150217905550610100820151816008015550506002600081548092919061067c90612c84565b91905055505050505050505050565b60065481565b6106996120e3565b858160000181905250848160200181905250838160400181905250828160600181905250600a54816080018181525050818160a00181905250600b819080600181540180825580915050600190039060005260206000209060060201600090919091909150600082015181600001908051906020019061071a92919061205d565b50602082015181600101908051906020019061073792919061205d565b50604082015181600201908051906020019061075492919061205d565b50606082015181600301908051906020019061077192919061205d565b506080820151816004015560a082015181600501908051906020019061079892919061205d565b505050600a60008154809291906107ae90612c84565b9190505550505050505050565b60045481565b600381815481106107d157600080fd5b90600052602060002090600902016000915090508060000180546107f490612c23565b80601f016020809104026020016040519081016040528092919081815260200182805461082090612c23565b801561086d5780601f106108425761010080835404028352916020019161086d565b820191906000526020600020905b81548152906001019060200180831161085057829003601f168201915b50505050509080600101805461088290612c23565b80601f01602080910402602001604051908101604052809291908181526020018280546108ae90612c23565b80156108fb5780601f106108d0576101008083540402835291602001916108fb565b820191906000526020600020905b8154815290600101906020018083116108de57829003601f168201915b50505050509080600201805461091090612c23565b80601f016020809104026020016040519081016040528092919081815260200182805461093c90612c23565b80156109895780601f1061095e57610100808354040283529160200191610989565b820191906000526020600020905b81548152906001019060200180831161096c57829003601f168201915b50505050509080600301805461099e90612c23565b80601f01602080910402602001604051908101604052809291908181526020018280546109ca90612c23565b8015610a175780601f106109ec57610100808354040283529160200191610a17565b820191906000526020600020905b8154815290600101906020018083116109fa57829003601f168201915b505050505090806004018054610a2c90612c23565b80601f0160208091040260200160405190810160405280929190818152602001828054610a5890612c23565b8015610aa55780601f10610a7a57610100808354040283529160200191610aa5565b820191906000526020600020905b815481529060010190602001808311610a8857829003601f168201915b505050505090806005018054610aba90612c23565b80601f0160208091040260200160405190810160405280929190818152602001828054610ae690612c23565b8015610b335780601f10610b0857610100808354040283529160200191610b33565b820191906000526020600020905b815481529060010190602001808311610b1657829003601f168201915b505050505090806006018054610b4890612c23565b80601f0160208091040260200160405190810160405280929190818152602001828054610b7490612c23565b8015610bc15780601f10610b9657610100808354040283529160200191610bc1565b820191906000526020600020905b815481529060010190602001808311610ba457829003601f168201915b5050505050908060070160009054906101000a900460ff16908060080154905089565b60005481565b60098181548110610bfa57600080fd5b90600052602060002090600302016000915090508060000160009054906101000a900473ffffffffffffffffffffffffffffffffffffffff1690806001018054610c4390612c23565b80601f0160208091040260200160405190810160405280929190818152602001828054610c6f90612c23565b8015610cbc5780601f10610c9157610100808354040283529160200191610cbc565b820191906000526020600020905b815481529060010190602001808311610c9f57829003601f168201915b505050505090806002018054610cd190612c23565b80601f0160208091040260200160405190810160405280929190818152602001828054610cfd90612c23565b8015610d4a5780601f10610d1f57610100808354040283529160200191610d4a565b820191906000526020600020905b815481529060010190602001808311610d2d57829003601f168201915b5050505050905083565b60078181548110610d6457600080fd5b90600052602060002090600302016000915090508060000160009054906101000a900473ffffffffffffffffffffffffffffffffffffffff1690806001018054610dad90612c23565b80601f0160208091040260200160405190810160405280929190818152602001828054610dd990612c23565b8015610e265780601f10610dfb57610100808354040283529160200191610e26565b820191906000526020600020905b815481529060010190602001808311610e0957829003601f168201915b505050505090806002018054610e3b90612c23565b80601f0160208091040260200160405190810160405280929190818152602001828054610e6790612c23565b8015610eb45780601f10610e8957610100808354040283529160200191610eb4565b820191906000526020600020905b815481529060010190602001808311610e9757829003601f168201915b5050505050905083565b600080600090505b600654811015610f665760078181548110610ee457610ee3612ccd565b5b906000526020600020906003020160000160009054906101000a900473ffffffffffffffffffffffffffffffffffffffff1673ffffffffffffffffffffffffffffffffffffffff168373ffffffffffffffffffffffffffffffffffffffff161415610f53576001915050610f6c565b8080610f5e90612c84565b915050610ec6565b50600090505b919050565b600a5481565b60025481565b600060038681548110610f9357610f92612ccd565b5b906000526020600020906009020160405180610120016040529081600082018054610fbd90612c23565b80601f0160208091040260200160405190810160405280929190818152602001828054610fe990612c23565b80156110365780601f1061100b57610100808354040283529160200191611036565b820191906000526020600020905b81548152906001019060200180831161101957829003601f168201915b5050505050815260200160018201805461104f90612c23565b80601f016020809104026020016040519081016040528092919081815260200182805461107b90612c23565b80156110c85780601f1061109d576101008083540402835291602001916110c8565b820191906000526020600020905b8154815290600101906020018083116110ab57829003601f168201915b505050505081526020016002820180546110e190612c23565b80601f016020809104026020016040519081016040528092919081815260200182805461110d90612c23565b801561115a5780601f1061112f5761010080835404028352916020019161115a565b820191906000526020600020905b81548152906001019060200180831161113d57829003601f168201915b5050505050815260200160038201805461117390612c23565b80601f016020809104026020016040519081016040528092919081815260200182805461119f90612c23565b80156111ec5780601f106111c1576101008083540402835291602001916111ec565b820191906000526020600020905b8154815290600101906020018083116111cf57829003601f168201915b5050505050815260200160048201805461120590612c23565b80601f016020809104026020016040519081016040528092919081815260200182805461123190612c23565b801561127e5780601f106112535761010080835404028352916020019161127e565b820191906000526020600020905b81548152906001019060200180831161126157829003601f168201915b5050505050815260200160058201805461129790612c23565b80601f01602080910402602001604051908101604052809291908181526020018280546112c390612c23565b80156113105780601f106112e557610100808354040283529160200191611310565b820191906000526020600020905b8154815290600101906020018083116112f357829003601f168201915b5050505050815260200160068201805461132990612c23565b80601f016020809104026020016040519081016040528092919081815260200182805461135590612c23565b80156113a25780601f10611377576101008083540402835291602001916113a2565b820191906000526020600020905b81548152906001019060200180831161138557829003601f168201915b505050505081526020016007820160009054906101000a900460ff161515151581526020016008820154815250509050848160400181905250838160600181905250828160800181905250818160e00190151590811515815250506003868154811061141157611410612ccd565b5b9060005260206000209060090201600101805461142d90612c23565b80601f016020809104026020016040519081016040528092919081815260200182805461145990612c23565b80156114a65780601f1061147b576101008083540402835291602001916114a6565b820191906000526020600020905b81548152906001019060200180831161148957829003601f168201915b5050505050816020018190525080600387815481106114c8576114c7612ccd565b5b906000526020600020906009020160008201518160000190805190602001906114f292919061205d565b50602082015181600101908051906020019061150f92919061205d565b50604082015181600201908051906020019061152c92919061205d565b50606082015181600301908051906020019061154992919061205d565b50608082015181600401908051906020019061156692919061205d565b5060a082015181600501908051906020019061158392919061205d565b5060c08201518160060190805190602001906115a092919061205d565b5060e08201518160070160006101000a81548160ff0219169083151502179055506101008201518160080155905050505050505050565b60085481565b600080600090505b600854811015611685576009818154811061160357611602612ccd565b5b906000526020600020906003020160000160009054906101000a900473ffffffffffffffffffffffffffffffffffffffff1673ffffffffffffffffffffffffffffffffffffffff168373ffffffffffffffffffffffffffffffffffffffff16141561167257600191505061168b565b808061167d90612c84565b9150506115e5565b50600090505b919050565b600181815481106116a057600080fd5b90600052602060002090600802016000915090508060000154908060010180546116c990612c23565b80601f01602080910402602001604051908101604052809291908181526020018280546116f590612c23565b80156117425780601f1061171757610100808354040283529160200191611742565b820191906000526020600020905b81548152906001019060200180831161172557829003601f168201915b50505050509080600201805461175790612c23565b80601f016020809104026020016040519081016040528092919081815260200182805461178390612c23565b80156117d05780601f106117a5576101008083540402835291602001916117d0565b820191906000526020600020905b8154815290600101906020018083116117b357829003601f168201915b5050505050908060030180546117e590612c23565b80601f016020809104026020016040519081016040528092919081815260200182805461181190612c23565b801561185e5780601f106118335761010080835404028352916020019161185e565b820191906000526020600020905b81548152906001019060200180831161184157829003601f168201915b50505050509080600401805461187390612c23565b80601f016020809104026020016040519081016040528092919081815260200182805461189f90612c23565b80156118ec5780601f106118c1576101008083540402835291602001916118ec565b820191906000526020600020905b8154815290600101906020018083116118cf57829003601f168201915b50505050509080600501805461190190612c23565b80601f016020809104026020016040519081016040528092919081815260200182805461192d90612c23565b801561197a5780601f1061194f5761010080835404028352916020019161197a565b820191906000526020600020905b81548152906001019060200180831161195d57829003601f168201915b50505050509080600601805461198f90612c23565b80601f01602080910402602001604051908101604052809291908181526020018280546119bb90612c23565b8015611a085780601f106119dd57610100808354040283529160200191611a08565b820191906000526020600020905b8154815290600101906020018083116119eb57829003601f168201915b5050505050908060070154905088565b60016040518061010001604052808381526020018581526020018481526020018881526020018781526020018681526020016040518060200160405280600081525081526020016000548152509080600181540180825580915050600190039060005260206000209060080201600090919091909150600082015181600001556020820151816001019080519060200190611ab492919061205d565b506040820151816002019080519060200190611ad192919061205d565b506060820151816003019080519060200190611aee92919061205d565b506080820151816004019080519060200190611b0b92919061205d565b5060a0820151816005019080519060200190611b2892919061205d565b5060c0820151816006019080519060200190611b4592919061205d565b5060e082015181600701555050600080815480929190611b6490612c84565b9190505550505050505050565b600760405180606001604052808573ffffffffffffffffffffffffffffffffffffffff16815260200184815260200183815250908060018154018082558091505060019003906000526020600020906003020160009091909190915060008201518160000160006101000a81548173ffffffffffffffffffffffffffffffffffffffff021916908373ffffffffffffffffffffffffffffffffffffffff1602179055506020820151816001019080519060200190611c3092919061205d565b506040820151816002019080519060200190611c4d92919061205d565b50505060066000815480929190611c6390612c84565b9190505550505050565b600960405180606001604052808573ffffffffffffffffffffffffffffffffffffffff16815260200184815260200183815250908060018154018082558091505060019003906000526020600020906003020160009091909190915060008201518160000160006101000a81548173ffffffffffffffffffffffffffffffffffffffff021916908373ffffffffffffffffffffffffffffffffffffffff1602179055506020820151816001019080519060200190611d2c92919061205d565b506040820151816002019080519060200190611d4992919061205d565b50505060066000815480929190611d5f90612c84565b9190505550505050565b600b8181548110611d7957600080fd5b9060005260206000209060060201600091509050806000018054611d9c90612c23565b80601f0160208091040260200160405190810160405280929190818152602001828054611dc890612c23565b8015611e155780601f10611dea57610100808354040283529160200191611e15565b820191906000526020600020905b815481529060010190602001808311611df857829003601f168201915b505050505090806001018054611e2a90612c23565b80601f0160208091040260200160405190810160405280929190818152602001828054611e5690612c23565b8015611ea35780601f10611e7857610100808354040283529160200191611ea3565b820191906000526020600020905b815481529060010190602001808311611e8657829003601f168201915b505050505090806002018054611eb890612c23565b80601f0160208091040260200160405190810160405280929190818152602001828054611ee490612c23565b8015611f315780601f10611f0657610100808354040283529160200191611f31565b820191906000526020600020905b815481529060010190602001808311611f1457829003601f168201915b505050505090806003018054611f4690612c23565b80601f0160208091040260200160405190810160405280929190818152602001828054611f7290612c23565b8015611fbf5780601f10611f9457610100808354040283529160200191611fbf565b820191906000526020600020905b815481529060010190602001808311611fa257829003601f168201915b505050505090806004015490806005018054611fda90612c23565b80601f016020809104026020016040519081016040528092919081815260200182805461200690612c23565b80156120535780601f1061202857610100808354040283529160200191612053565b820191906000526020600020905b81548152906001019060200180831161203657829003601f168201915b5050505050905086565b82805461206990612c23565b90600052602060002090601f01602090048101928261208b57600085556120d2565b82601f106120a457805160ff19168380011785556120d2565b828001600101855582156120d2579182015b828111156120d15782518255916020019190600101906120b6565b5b5090506120df9190612119565b5090565b6040518060c001604052806060815260200160608152602001606081526020016060815260200160008152602001606081525090565b5b8082111561213257600081600090555060010161211a565b5090565b6000604051905090565b600080fd5b600080fd5b6000819050919050565b61215d8161214a565b811461216857600080fd5b50565b60008135905061217a81612154565b92915050565b60006020828403121561219657612195612140565b5b60006121a48482850161216b565b91505092915050565b600073ffffffffffffffffffffffffffffffffffffffff82169050919050565b60006121d8826121ad565b9050919050565b6121e8816121cd565b82525050565b600081519050919050565b600082825260208201905092915050565b60005b8381101561222857808201518184015260208101905061220d565b83811115612237576000848401525b50505050565b6000601f19601f8301169050919050565b6000612259826121ee565b61226381856121f9565b935061227381856020860161220a565b61227c8161223d565b840191505092915050565b600060408201905061229c60008301856121df565b81810360208301526122ae818461224e565b90509392505050565b600080fd5b600080fd5b7f4e487b7100000000000000000000000000000000000000000000000000000000600052604160045260246000fd5b6122f98261223d565b810181811067ffffffffffffffff82111715612318576123176122c1565b5b80604052505050565b600061232b612136565b905061233782826122f0565b919050565b600067ffffffffffffffff821115612357576123566122c1565b5b6123608261223d565b9050602081019050919050565b82818337600083830152505050565b600061238f61238a8461233c565b612321565b9050828152602081018484840111156123ab576123aa6122bc565b5b6123b684828561236d565b509392505050565b600082601f8301126123d3576123d26122b7565b5b81356123e384826020860161237c565b91505092915050565b60008115159050919050565b612401816123ec565b811461240c57600080fd5b50565b60008135905061241e816123f8565b92915050565b600080600080600080600080610100898b03121561244557612444612140565b5b600089013567ffffffffffffffff81111561246357612462612145565b5b61246f8b828c016123be565b985050602089013567ffffffffffffffff8111156124905761248f612145565b5b61249c8b828c016123be565b975050604089013567ffffffffffffffff8111156124bd576124bc612145565b5b6124c98b828c016123be565b965050606089013567ffffffffffffffff8111156124ea576124e9612145565b5b6124f68b828c016123be565b955050608089013567ffffffffffffffff81111561251757612516612145565b5b6125238b828c016123be565b94505060a089013567ffffffffffffffff81111561254457612543612145565b5b6125508b828c016123be565b93505060c089013567ffffffffffffffff81111561257157612570612145565b5b61257d8b828c016123be565b92505060e061258e8b828c0161240f565b9150509295985092959890939650565b6125a78161214a565b82525050565b60006020820190506125c2600083018461259e565b92915050565b600080600080600060a086880312156125e4576125e3612140565b5b600086013567ffffffffffffffff81111561260257612601612145565b5b61260e888289016123be565b955050602086013567ffffffffffffffff81111561262f5761262e612145565b5b61263b888289016123be565b945050604086013567ffffffffffffffff81111561265c5761265b612145565b5b612668888289016123be565b935050606086013567ffffffffffffffff81111561268957612688612145565b5b612695888289016123be565b925050608086013567ffffffffffffffff8111156126b6576126b5612145565b5b6126c2888289016123be565b9150509295509295909350565b6126d8816123ec565b82525050565b60006101208201905081810360008301526126f9818c61224e565b9050818103602083015261270d818b61224e565b90508181036040830152612721818a61224e565b90508181036060830152612735818961224e565b90508181036080830152612749818861224e565b905081810360a083015261275d818761224e565b905081810360c0830152612771818661224e565b905061278060e08301856126cf565b61278e61010083018461259e565b9a9950505050505050505050565b60006060820190506127b160008301866121df565b81810360208301526127c3818561224e565b905081810360408301526127d7818461224e565b9050949350505050565b6127ea816121cd565b81146127f557600080fd5b50565b600081359050612807816127e1565b92915050565b60006020828403121561282357612822612140565b5b6000612831848285016127f8565b91505092915050565b600060208201905061284f60008301846126cf565b92915050565b600080600080600060a0868803121561287157612870612140565b5b600061287f8882890161216b565b955050602086013567ffffffffffffffff8111156128a05761289f612145565b5b6128ac888289016123be565b945050604086013567ffffffffffffffff8111156128cd576128cc612145565b5b6128d9888289016123be565b935050606086013567ffffffffffffffff8111156128fa576128f9612145565b5b612906888289016123be565b92505060806129178882890161240f565b9150509295509295909350565b60006101008201905061293a600083018b61259e565b818103602083015261294c818a61224e565b90508181036040830152612960818961224e565b90508181036060830152612974818861224e565b90508181036080830152612988818761224e565b905081810360a083015261299c818661224e565b905081810360c08301526129b0818561224e565b90506129bf60e083018461259e565b9998505050505050505050565b60008060008060008060c087890312156129e9576129e8612140565b5b600087013567ffffffffffffffff811115612a0757612a06612145565b5b612a1389828a016123be565b965050602087013567ffffffffffffffff811115612a3457612a33612145565b5b612a4089828a016123be565b955050604087013567ffffffffffffffff811115612a6157612a60612145565b5b612a6d89828a016123be565b945050606087013567ffffffffffffffff811115612a8e57612a8d612145565b5b612a9a89828a016123be565b935050608087013567ffffffffffffffff811115612abb57612aba612145565b5b612ac789828a016123be565b92505060a0612ad889828a0161216b565b9150509295509295509295565b600080600060608486031215612afe57612afd612140565b5b6000612b0c868287016127f8565b935050602084013567ffffffffffffffff811115612b2d57612b2c612145565b5b612b39868287016123be565b925050604084013567ffffffffffffffff811115612b5a57612b59612145565b5b612b66868287016123be565b9150509250925092565b600060c0820190508181036000830152612b8a818961224e565b90508181036020830152612b9e818861224e565b90508181036040830152612bb2818761224e565b90508181036060830152612bc6818661224e565b9050612bd5608083018561259e565b81810360a0830152612be7818461224e565b9050979650505050505050565b7f4e487b7100000000000000000000000000000000000000000000000000000000600052602260045260246000fd5b60006002820490506001821680612c3b57607f821691505b60208210811415612c4f57612c4e612bf4565b5b50919050565b7f4e487b7100000000000000000000000000000000000000000000000000000000600052601160045260246000fd5b6000612c8f8261214a565b91507fffffffffffffffffffffffffffffffffffffffffffffffffffffffffffffffff821415612cc257612cc1612c55565b5b600182019050919050565b7f4e487b7100000000000000000000000000000000000000000000000000000000600052603260045260246000fdfea26469706673582212203bc9b5e8e725290b56dce535365d3537e750560132238a244dc09539168eb66164736f6c63430008090033",
  "linkReferences": {},
  "deployedLinkReferences": {}
}